{
	"assessment.sol": {
		"RailwayBooking": {
			"abi": [
				{
					"inputs": [
						{
							"internalType": "uint256",
							"name": "_totalSeats",
							"type": "uint256"
						},
						{
							"internalType": "uint256",
							"name": "_ticketPrice",
							"type": "uint256"
						}
					],
					"stateMutability": "nonpayable",
					"type": "constructor"
				},
				{
					"inputs": [
						{
							"internalType": "uint256",
							"name": "seatNumber",
							"type": "uint256"
						}
					],
					"name": "bookTicket",
					"outputs": [],
					"stateMutability": "payable",
					"type": "function"
				},
				{
					"inputs": [],
					"name": "bookedSeats",
					"outputs": [
						{
							"internalType": "uint256",
							"name": "",
							"type": "uint256"
						}
					],
					"stateMutability": "view",
					"type": "function"
				},
				{
					"inputs": [
						{
							"internalType": "uint256",
							"name": "seatNumber",
							"type": "uint256"
						}
					],
					"name": "cancelTicket",
					"outputs": [],
					"stateMutability": "nonpayable",
					"type": "function"
				},
				{
					"inputs": [],
					"name": "getBookedSeats",
					"outputs": [
						{
							"internalType": "uint256",
							"name": "",
							"type": "uint256"
						}
					],
					"stateMutability": "view",
					"type": "function"
				},
				{
					"inputs": [],
					"name": "owner",
					"outputs": [
						{
							"internalType": "address",
							"name": "",
							"type": "address"
						}
					],
					"stateMutability": "view",
					"type": "function"
				},
				{
					"inputs": [],
					"name": "ticketPrice",
					"outputs": [
						{
							"internalType": "uint256",
							"name": "",
							"type": "uint256"
						}
					],
					"stateMutability": "view",
					"type": "function"
				},
				{
					"inputs": [
						{
							"internalType": "uint256",
							"name": "",
							"type": "uint256"
						}
					],
					"name": "tickets",
					"outputs": [
						{
							"internalType": "address",
							"name": "passenger",
							"type": "address"
						},
						{
							"internalType": "uint256",
							"name": "seatNumber",
							"type": "uint256"
						},
						{
							"internalType": "bool",
							"name": "isBooked",
							"type": "bool"
						}
					],
					"stateMutability": "view",
					"type": "function"
				},
				{
					"inputs": [],
					"name": "totalSeats",
					"outputs": [
						{
							"internalType": "uint256",
							"name": "",
							"type": "uint256"
						}
					],
					"stateMutability": "view",
					"type": "function"
				},
				{
					"inputs": [],
					"name": "withdrawFunds",
					"outputs": [],
					"stateMutability": "nonpayable",
					"type": "function"
				}
			],
			"devdoc": {
				"kind": "dev",
				"methods": {},
				"version": 1
			},
			"evm": {
				"assembly": "    /* \"assessment.sol\":60:2629  contract RailwayBooking {... */\n  mstore(0x40, 0x80)\n    /* \"assessment.sol\":377:567  constructor(uint256 _totalSeats, uint256 _ticketPrice) {... */\n  callvalue\n  dup1\n  iszero\n  tag_1\n  jumpi\n  0x00\n  dup1\n  revert\ntag_1:\n  pop\n  mload(0x40)\n  sub(codesize, bytecodeSize)\n  dup1\n  bytecodeSize\n  dup4\n  codecopy\n  dup2\n  dup2\n  add\n  0x40\n  mstore\n  dup2\n  add\n  swap1\n  tag_2\n  swap2\n  swap1\n  tag_3\n  jump\t// in\ntag_2:\n    /* \"assessment.sol\":451:461  msg.sender */\n  caller\n    /* \"assessment.sol\":443:448  owner */\n  0x00\n  dup1\n    /* \"assessment.sol\":443:461  owner = msg.sender */\n  0x0100\n  exp\n  dup2\n  sload\n  dup2\n  0xffffffffffffffffffffffffffffffffffffffff\n  mul\n  not\n  and\n  swap1\n  dup4\n  0xffffffffffffffffffffffffffffffffffffffff\n  and\n  mul\n  or\n  swap1\n  sstore\n  pop\n    /* \"assessment.sol\":485:496  _totalSeats */\n  dup2\n    /* \"assessment.sol\":472:482  totalSeats */\n  0x02\n    /* \"assessment.sol\":472:496  totalSeats = _totalSeats */\n  dup2\n  swap1\n  sstore\n  pop\n    /* \"assessment.sol\":521:533  _ticketPrice */\n  dup1\n    /* \"assessment.sol\":507:518  ticketPrice */\n  0x01\n    /* \"assessment.sol\":507:533  ticketPrice = _ticketPrice */\n  dup2\n  swap1\n  sstore\n  pop\n    /* \"assessment.sol\":558:559  0 */\n  0x00\n    /* \"assessment.sol\":544:555  bookedSeats */\n  0x03\n    /* \"assessment.sol\":544:559  bookedSeats = 0 */\n  dup2\n  swap1\n  sstore\n  pop\n    /* \"assessment.sol\":377:567  constructor(uint256 _totalSeats, uint256 _ticketPrice) {... */\n  pop\n  pop\n    /* \"assessment.sol\":60:2629  contract RailwayBooking {... */\n  jump(tag_6)\n    /* \"#utility.yul\":88:205   */\ntag_8:\n    /* \"#utility.yul\":197:198   */\n  0x00\n    /* \"#utility.yul\":194:195   */\n  dup1\n    /* \"#utility.yul\":187:199   */\n  revert\n    /* \"#utility.yul\":334:411   */\ntag_10:\n    /* \"#utility.yul\":371:378   */\n  0x00\n    /* \"#utility.yul\":400:405   */\n  dup2\n    /* \"#utility.yul\":389:405   */\n  swap1\n  pop\n    /* \"#utility.yul\":334:411   */\n  swap2\n  swap1\n  pop\n  jump\t// out\n    /* \"#utility.yul\":417:539   */\ntag_11:\n    /* \"#utility.yul\":490:514   */\n  tag_19\n    /* \"#utility.yul\":508:513   */\n  dup2\n    /* \"#utility.yul\":490:514   */\n  tag_10\n  jump\t// in\ntag_19:\n    /* \"#utility.yul\":483:488   */\n  dup2\n    /* \"#utility.yul\":480:515   */\n  eq\n    /* \"#utility.yul\":470:533   */\n  tag_20\n  jumpi\n    /* \"#utility.yul\":529:530   */\n  0x00\n    /* \"#utility.yul\":526:527   */\n  dup1\n    /* \"#utility.yul\":519:531   */\n  revert\n    /* \"#utility.yul\":470:533   */\ntag_20:\n    /* \"#utility.yul\":417:539   */\n  pop\n  jump\t// out\n    /* \"#utility.yul\":545:688   */\ntag_12:\n    /* \"#utility.yul\":602:607   */\n  0x00\n    /* \"#utility.yul\":633:639   */\n  dup2\n    /* \"#utility.yul\":627:640   */\n  mload\n    /* \"#utility.yul\":618:640   */\n  swap1\n  pop\n    /* \"#utility.yul\":649:682   */\n  tag_22\n    /* \"#utility.yul\":676:681   */\n  dup2\n    /* \"#utility.yul\":649:682   */\n  tag_11\n  jump\t// in\ntag_22:\n    /* \"#utility.yul\":545:688   */\n  swap3\n  swap2\n  pop\n  pop\n  jump\t// out\n    /* \"#utility.yul\":694:1201   */\ntag_3:\n    /* \"#utility.yul\":773:779   */\n  0x00\n    /* \"#utility.yul\":781:787   */\n  dup1\n    /* \"#utility.yul\":830:832   */\n  0x40\n    /* \"#utility.yul\":818:827   */\n  dup4\n    /* \"#utility.yul\":809:816   */\n  dup6\n    /* \"#utility.yul\":805:828   */\n  sub\n    /* \"#utility.yul\":801:833   */\n  slt\n    /* \"#utility.yul\":798:917   */\n  iszero\n  tag_24\n  jumpi\n    /* \"#utility.yul\":836:915   */\n  tag_25\n  tag_8\n  jump\t// in\ntag_25:\n    /* \"#utility.yul\":798:917   */\ntag_24:\n    /* \"#utility.yul\":956:957   */\n  0x00\n    /* \"#utility.yul\":981:1045   */\n  tag_26\n    /* \"#utility.yul\":1037:1044   */\n  dup6\n    /* \"#utility.yul\":1028:1034   */\n  dup3\n    /* \"#utility.yul\":1017:1026   */\n  dup7\n    /* \"#utility.yul\":1013:1035   */\n  add\n    /* \"#utility.yul\":981:1045   */\n  tag_12\n  jump\t// in\ntag_26:\n    /* \"#utility.yul\":971:1045   */\n  swap3\n  pop\n    /* \"#utility.yul\":927:1055   */\n  pop\n    /* \"#utility.yul\":1094:1096   */\n  0x20\n    /* \"#utility.yul\":1120:1184   */\n  tag_27\n    /* \"#utility.yul\":1176:1183   */\n  dup6\n    /* \"#utility.yul\":1167:1173   */\n  dup3\n    /* \"#utility.yul\":1156:1165   */\n  dup7\n    /* \"#utility.yul\":1152:1174   */\n  add\n    /* \"#utility.yul\":1120:1184   */\n  tag_12\n  jump\t// in\ntag_27:\n    /* \"#utility.yul\":1110:1184   */\n  swap2\n  pop\n    /* \"#utility.yul\":1065:1194   */\n  pop\n    /* \"#utility.yul\":694:1201   */\n  swap3\n  pop\n  swap3\n  swap1\n  pop\n  jump\t// out\n    /* \"assessment.sol\":60:2629  contract RailwayBooking {... */\ntag_6:\n  dataSize(sub_0)\n  dup1\n  dataOffset(sub_0)\n  0x00\n  codecopy\n  0x00\n  return\nstop\n\nsub_0: assembly {\n        /* \"assessment.sol\":60:2629  contract RailwayBooking {... */\n      mstore(0x40, 0x80)\n      jumpi(tag_1, lt(calldatasize, 0x04))\n      shr(0xe0, calldataload(0x00))\n      dup1\n      0x24600fc3\n      gt\n      tag_11\n      jumpi\n      dup1\n      0x24600fc3\n      eq\n      tag_6\n      jumpi\n      dup1\n      0x50b44712\n      eq\n      tag_7\n      jumpi\n      dup1\n      0x5ebb833b\n      eq\n      tag_8\n      jumpi\n      dup1\n      0x8da5cb5b\n      eq\n      tag_9\n      jumpi\n      dup1\n      0xee355b1f\n      eq\n      tag_10\n      jumpi\n      jump(tag_1)\n    tag_11:\n      dup1\n      0x1209b1f6\n      eq\n      tag_2\n      jumpi\n      dup1\n      0x1bd50859\n      eq\n      tag_3\n      jumpi\n      dup1\n      0x1c91a65e\n      eq\n      tag_4\n      jumpi\n      dup1\n      0x1ffc615e\n      eq\n      tag_5\n      jumpi\n    tag_1:\n      0x00\n      dup1\n      revert\n        /* \"assessment.sol\":229:255  uint256 public ticketPrice */\n    tag_2:\n      callvalue\n      dup1\n      iszero\n      tag_12\n      jumpi\n      0x00\n      dup1\n      revert\n    tag_12:\n      pop\n      tag_13\n      tag_14\n      jump\t// in\n    tag_13:\n      mload(0x40)\n      tag_15\n      swap2\n      swap1\n      tag_16\n      jump\t// in\n    tag_15:\n      mload(0x40)\n      dup1\n      swap2\n      sub\n      swap1\n      return\n        /* \"assessment.sol\":294:320  uint256 public bookedSeats */\n    tag_3:\n      callvalue\n      dup1\n      iszero\n      tag_17\n      jumpi\n      0x00\n      dup1\n      revert\n    tag_17:\n      pop\n      tag_18\n      tag_19\n      jump\t// in\n    tag_18:\n      mload(0x40)\n      tag_20\n      swap2\n      swap1\n      tag_16\n      jump\t// in\n    tag_20:\n      mload(0x40)\n      dup1\n      swap2\n      sub\n      swap1\n      return\n        /* \"assessment.sol\":609:1254  function bookTicket(uint256 seatNumber) public payable {... */\n    tag_4:\n      tag_21\n      0x04\n      dup1\n      calldatasize\n      sub\n      dup2\n      add\n      swap1\n      tag_22\n      swap2\n      swap1\n      tag_23\n      jump\t// in\n    tag_22:\n      tag_24\n      jump\t// in\n    tag_21:\n      stop\n        /* \"assessment.sol\":262:287  uint256 public totalSeats */\n    tag_5:\n      callvalue\n      dup1\n      iszero\n      tag_25\n      jumpi\n      0x00\n      dup1\n      revert\n    tag_25:\n      pop\n      tag_26\n      tag_27\n      jump\t// in\n    tag_26:\n      mload(0x40)\n      tag_28\n      swap2\n      swap1\n      tag_16\n      jump\t// in\n    tag_28:\n      mload(0x40)\n      dup1\n      swap2\n      sub\n      swap1\n      return\n        /* \"assessment.sol\":2318:2626  function withdrawFunds() public {... */\n    tag_6:\n      callvalue\n      dup1\n      iszero\n      tag_29\n      jumpi\n      0x00\n      dup1\n      revert\n    tag_29:\n      pop\n      tag_30\n      tag_31\n      jump\t// in\n    tag_30:\n      stop\n        /* \"assessment.sol\":327:368  mapping(uint256 => Ticket) public tickets */\n    tag_7:\n      callvalue\n      dup1\n      iszero\n      tag_32\n      jumpi\n      0x00\n      dup1\n      revert\n    tag_32:\n      pop\n      tag_33\n      0x04\n      dup1\n      calldatasize\n      sub\n      dup2\n      add\n      swap1\n      tag_34\n      swap2\n      swap1\n      tag_23\n      jump\t// in\n    tag_34:\n      tag_35\n      jump\t// in\n    tag_33:\n      mload(0x40)\n      tag_36\n      swap4\n      swap3\n      swap2\n      swap1\n      tag_37\n      jump\t// in\n    tag_36:\n      mload(0x40)\n      dup1\n      swap2\n      sub\n      swap1\n      return\n        /* \"assessment.sol\":2165:2258  function getBookedSeats() public view returns (uint256) {... */\n    tag_8:\n      callvalue\n      dup1\n      iszero\n      tag_38\n      jumpi\n      0x00\n      dup1\n      revert\n    tag_38:\n      pop\n      tag_39\n      tag_40\n      jump\t// in\n    tag_39:\n      mload(0x40)\n      tag_41\n      swap2\n      swap1\n      tag_16\n      jump\t// in\n    tag_41:\n      mload(0x40)\n      dup1\n      swap2\n      sub\n      swap1\n      return\n        /* \"assessment.sol\":202:222  address public owner */\n    tag_9:\n      callvalue\n      dup1\n      iszero\n      tag_42\n      jumpi\n      0x00\n      dup1\n      revert\n    tag_42:\n      pop\n      tag_43\n      tag_44\n      jump\t// in\n    tag_43:\n      mload(0x40)\n      tag_45\n      swap2\n      swap1\n      tag_46\n      jump\t// in\n    tag_45:\n      mload(0x40)\n      dup1\n      swap2\n      sub\n      swap1\n      return\n        /* \"assessment.sol\":1298:2110  function cancelTicket(uint256 seatNumber) public {... */\n    tag_10:\n      callvalue\n      dup1\n      iszero\n      tag_47\n      jumpi\n      0x00\n      dup1\n      revert\n    tag_47:\n      pop\n      tag_48\n      0x04\n      dup1\n      calldatasize\n      sub\n      dup2\n      add\n      swap1\n      tag_49\n      swap2\n      swap1\n      tag_23\n      jump\t// in\n    tag_49:\n      tag_50\n      jump\t// in\n    tag_48:\n      stop\n        /* \"assessment.sol\":229:255  uint256 public ticketPrice */\n    tag_14:\n      sload(0x01)\n      dup2\n      jump\t// out\n        /* \"assessment.sol\":294:320  uint256 public bookedSeats */\n    tag_19:\n      sload(0x03)\n      dup2\n      jump\t// out\n        /* \"assessment.sol\":609:1254  function bookTicket(uint256 seatNumber) public payable {... */\n    tag_24:\n        /* \"assessment.sol\":740:751  ticketPrice */\n      sload(0x01)\n        /* \"assessment.sol\":727:736  msg.value */\n      callvalue\n        /* \"assessment.sol\":727:751  msg.value == ticketPrice */\n      eq\n        /* \"assessment.sol\":719:778  require(msg.value == ticketPrice, \"Incorrect ticket price\") */\n      tag_52\n      jumpi\n      mload(0x40)\n      0x08c379a000000000000000000000000000000000000000000000000000000000\n      dup2\n      mstore\n      0x04\n      add\n      tag_53\n      swap1\n      tag_54\n      jump\t// in\n    tag_53:\n      mload(0x40)\n      dup1\n      swap2\n      sub\n      swap1\n      revert\n    tag_52:\n        /* \"assessment.sol\":856:857  0 */\n      0x00\n        /* \"assessment.sol\":843:853  seatNumber */\n      dup2\n        /* \"assessment.sol\":843:857  seatNumber > 0 */\n      gt\n        /* \"assessment.sol\":843:885  seatNumber > 0 && seatNumber <= totalSeats */\n      dup1\n      iszero\n      tag_55\n      jumpi\n      pop\n        /* \"assessment.sol\":875:885  totalSeats */\n      sload(0x02)\n        /* \"assessment.sol\":861:871  seatNumber */\n      dup2\n        /* \"assessment.sol\":861:885  seatNumber <= totalSeats */\n      gt\n      iszero\n        /* \"assessment.sol\":843:885  seatNumber > 0 && seatNumber <= totalSeats */\n    tag_55:\n        /* \"assessment.sol\":835:909  require(seatNumber > 0 && seatNumber <= totalSeats, \"Invalid seat number\") */\n      tag_56\n      jumpi\n      mload(0x40)\n      0x08c379a000000000000000000000000000000000000000000000000000000000\n      dup2\n      mstore\n      0x04\n      add\n      tag_57\n      swap1\n      tag_58\n      jump\t// in\n    tag_57:\n      mload(0x40)\n      dup1\n      swap2\n      sub\n      swap1\n      revert\n    tag_56:\n        /* \"assessment.sol\":981:988  tickets */\n      0x04\n        /* \"assessment.sol\":981:1000  tickets[seatNumber] */\n      0x00\n        /* \"assessment.sol\":989:999  seatNumber */\n      dup3\n        /* \"assessment.sol\":981:1000  tickets[seatNumber] */\n      dup2\n      mstore\n      0x20\n      add\n      swap1\n      dup2\n      mstore\n      0x20\n      add\n      0x00\n      keccak256\n        /* \"assessment.sol\":981:1009  tickets[seatNumber].isBooked */\n      0x02\n      add\n      0x00\n      swap1\n      sload\n      swap1\n      0x0100\n      exp\n      swap1\n      div\n      0xff\n      and\n        /* \"assessment.sol\":980:1009  !tickets[seatNumber].isBooked */\n      iszero\n        /* \"assessment.sol\":972:1033  require(!tickets[seatNumber].isBooked, \"Seat already booked\") */\n      tag_59\n      jumpi\n      mload(0x40)\n      0x08c379a000000000000000000000000000000000000000000000000000000000\n      dup2\n      mstore\n      0x04\n      add\n      tag_60\n      swap1\n      tag_61\n      jump\t// in\n    tag_60:\n      mload(0x40)\n      dup1\n      swap2\n      sub\n      swap1\n      revert\n    tag_59:\n        /* \"assessment.sol\":1094:1130  Ticket(msg.sender, seatNumber, true) */\n      mload(0x40)\n      dup1\n      0x60\n      add\n      0x40\n      mstore\n      dup1\n        /* \"assessment.sol\":1101:1111  msg.sender */\n      caller\n        /* \"assessment.sol\":1094:1130  Ticket(msg.sender, seatNumber, true) */\n      0xffffffffffffffffffffffffffffffffffffffff\n      and\n      dup2\n      mstore\n      0x20\n      add\n        /* \"assessment.sol\":1113:1123  seatNumber */\n      dup3\n        /* \"assessment.sol\":1094:1130  Ticket(msg.sender, seatNumber, true) */\n      dup2\n      mstore\n      0x20\n      add\n        /* \"assessment.sol\":1125:1129  true */\n      0x01\n        /* \"assessment.sol\":1094:1130  Ticket(msg.sender, seatNumber, true) */\n      iszero\n      iszero\n      dup2\n      mstore\n      pop\n        /* \"assessment.sol\":1072:1079  tickets */\n      0x04\n        /* \"assessment.sol\":1072:1091  tickets[seatNumber] */\n      0x00\n        /* \"assessment.sol\":1080:1090  seatNumber */\n      dup4\n        /* \"assessment.sol\":1072:1091  tickets[seatNumber] */\n      dup2\n      mstore\n      0x20\n      add\n      swap1\n      dup2\n      mstore\n      0x20\n      add\n      0x00\n      keccak256\n        /* \"assessment.sol\":1072:1130  tickets[seatNumber] = Ticket(msg.sender, seatNumber, true) */\n      0x00\n      dup3\n      add\n      mload\n      dup2\n      0x00\n      add\n      exp(0x0100, 0x00)\n      dup2\n      sload\n      dup2\n      0xffffffffffffffffffffffffffffffffffffffff\n      mul\n      not\n      and\n      swap1\n      dup4\n      0xffffffffffffffffffffffffffffffffffffffff\n      and\n      mul\n      or\n      swap1\n      sstore\n      pop\n      0x20\n      dup3\n      add\n      mload\n      dup2\n      0x01\n      add\n      sstore\n      0x40\n      dup3\n      add\n      mload\n      dup2\n      0x02\n      add\n      exp(0x0100, 0x00)\n      dup2\n      sload\n      dup2\n      0xff\n      mul\n      not\n      and\n      swap1\n      dup4\n      iszero\n      iszero\n      mul\n      or\n      swap1\n      sstore\n      pop\n      swap1\n      pop\n      pop\n        /* \"assessment.sol\":1141:1152  bookedSeats */\n      0x03\n      0x00\n        /* \"assessment.sol\":1141:1154  bookedSeats++ */\n      dup2\n      sload\n      dup1\n      swap3\n      swap2\n      swap1\n      tag_62\n      swap1\n      tag_63\n      jump\t// in\n    tag_62:\n      swap2\n      swap1\n      pop\n      sstore\n      pop\n        /* \"assessment.sol\":1217:1224  tickets */\n      0x04\n        /* \"assessment.sol\":1217:1236  tickets[seatNumber] */\n      0x00\n        /* \"assessment.sol\":1225:1235  seatNumber */\n      dup3\n        /* \"assessment.sol\":1217:1236  tickets[seatNumber] */\n      dup2\n      mstore\n      0x20\n      add\n      swap1\n      dup2\n      mstore\n      0x20\n      add\n      0x00\n      keccak256\n        /* \"assessment.sol\":1217:1245  tickets[seatNumber].isBooked */\n      0x02\n      add\n      0x00\n      swap1\n      sload\n      swap1\n      0x0100\n      exp\n      swap1\n      div\n      0xff\n      and\n        /* \"assessment.sol\":1210:1246  assert(tickets[seatNumber].isBooked) */\n      tag_64\n      jumpi\n      tag_65\n      tag_66\n      jump\t// in\n    tag_65:\n    tag_64:\n        /* \"assessment.sol\":609:1254  function bookTicket(uint256 seatNumber) public payable {... */\n      pop\n      jump\t// out\n        /* \"assessment.sol\":262:287  uint256 public totalSeats */\n    tag_27:\n      sload(0x02)\n      dup2\n      jump\t// out\n        /* \"assessment.sol\":2318:2626  function withdrawFunds() public {... */\n    tag_31:\n        /* \"assessment.sol\":2436:2441  owner */\n      0x00\n      dup1\n      sload\n      swap1\n      0x0100\n      exp\n      swap1\n      div\n      0xffffffffffffffffffffffffffffffffffffffff\n      and\n        /* \"assessment.sol\":2422:2441  msg.sender == owner */\n      0xffffffffffffffffffffffffffffffffffffffff\n      and\n        /* \"assessment.sol\":2422:2432  msg.sender */\n      caller\n        /* \"assessment.sol\":2422:2441  msg.sender == owner */\n      0xffffffffffffffffffffffffffffffffffffffff\n      and\n      eq\n        /* \"assessment.sol\":2414:2479  require(msg.sender == owner, \"Only the owner can withdraw funds\") */\n      tag_68\n      jumpi\n      mload(0x40)\n      0x08c379a000000000000000000000000000000000000000000000000000000000\n      dup2\n      mstore\n      0x04\n      add\n      tag_69\n      swap1\n      tag_70\n      jump\t// in\n    tag_69:\n      mload(0x40)\n      dup1\n      swap2\n      sub\n      swap1\n      revert\n    tag_68:\n        /* \"assessment.sol\":2538:2552  uint256 amount */\n      0x00\n        /* \"assessment.sol\":2555:2576  address(this).balance */\n      selfbalance\n        /* \"assessment.sol\":2538:2576  uint256 amount = address(this).balance */\n      swap1\n      pop\n        /* \"assessment.sol\":2595:2600  owner */\n      0x00\n      dup1\n      sload\n      swap1\n      0x0100\n      exp\n      swap1\n      div\n      0xffffffffffffffffffffffffffffffffffffffff\n      and\n        /* \"assessment.sol\":2587:2610  payable(owner).transfer */\n      0xffffffffffffffffffffffffffffffffffffffff\n      and\n        /* \"assessment.sol\":2587:2618  payable(owner).transfer(amount) */\n      0x08fc\n        /* \"assessment.sol\":2611:2617  amount */\n      dup3\n        /* \"assessment.sol\":2587:2618  payable(owner).transfer(amount) */\n      swap1\n      dup2\n      iszero\n      mul\n      swap1\n      mload(0x40)\n      0x00\n      mload(0x40)\n      dup1\n      dup4\n      sub\n      dup2\n      dup6\n      dup9\n      dup9\n      call\n      swap4\n      pop\n      pop\n      pop\n      pop\n      iszero\n      dup1\n      iszero\n      tag_72\n      jumpi\n      returndatasize\n      0x00\n      dup1\n      returndatacopy\n      revert(0x00, returndatasize)\n    tag_72:\n      pop\n        /* \"assessment.sol\":2350:2626  {... */\n      pop\n        /* \"assessment.sol\":2318:2626  function withdrawFunds() public {... */\n      jump\t// out\n        /* \"assessment.sol\":327:368  mapping(uint256 => Ticket) public tickets */\n    tag_35:\n      mstore(0x20, 0x04)\n      dup1\n      0x00\n      mstore\n      keccak256(0x00, 0x40)\n      0x00\n      swap2\n      pop\n      swap1\n      pop\n      dup1\n      0x00\n      add\n      0x00\n      swap1\n      sload\n      swap1\n      0x0100\n      exp\n      swap1\n      div\n      0xffffffffffffffffffffffffffffffffffffffff\n      and\n      swap1\n      dup1\n      0x01\n      add\n      sload\n      swap1\n      dup1\n      0x02\n      add\n      0x00\n      swap1\n      sload\n      swap1\n      0x0100\n      exp\n      swap1\n      div\n      0xff\n      and\n      swap1\n      pop\n      dup4\n      jump\t// out\n        /* \"assessment.sol\":2165:2258  function getBookedSeats() public view returns (uint256) {... */\n    tag_40:\n        /* \"assessment.sol\":2212:2219  uint256 */\n      0x00\n        /* \"assessment.sol\":2239:2250  bookedSeats */\n      sload(0x03)\n        /* \"assessment.sol\":2232:2250  return bookedSeats */\n      swap1\n      pop\n        /* \"assessment.sol\":2165:2258  function getBookedSeats() public view returns (uint256) {... */\n      swap1\n      jump\t// out\n        /* \"assessment.sol\":202:222  address public owner */\n    tag_44:\n      0x00\n      dup1\n      sload\n      swap1\n      0x0100\n      exp\n      swap1\n      div\n      0xffffffffffffffffffffffffffffffffffffffff\n      and\n      dup2\n      jump\t// out\n        /* \"assessment.sol\":1298:2110  function cancelTicket(uint256 seatNumber) public {... */\n    tag_50:\n        /* \"assessment.sol\":1423:1424  0 */\n      0x00\n        /* \"assessment.sol\":1410:1420  seatNumber */\n      dup2\n        /* \"assessment.sol\":1410:1424  seatNumber > 0 */\n      gt\n        /* \"assessment.sol\":1410:1452  seatNumber > 0 && seatNumber <= totalSeats */\n      dup1\n      iszero\n      tag_75\n      jumpi\n      pop\n        /* \"assessment.sol\":1442:1452  totalSeats */\n      sload(0x02)\n        /* \"assessment.sol\":1428:1438  seatNumber */\n      dup2\n        /* \"assessment.sol\":1428:1452  seatNumber <= totalSeats */\n      gt\n      iszero\n        /* \"assessment.sol\":1410:1452  seatNumber > 0 && seatNumber <= totalSeats */\n    tag_75:\n        /* \"assessment.sol\":1402:1476  require(seatNumber > 0 && seatNumber <= totalSeats, \"Invalid seat number\") */\n      tag_76\n      jumpi\n      mload(0x40)\n      0x08c379a000000000000000000000000000000000000000000000000000000000\n      dup2\n      mstore\n      0x04\n      add\n      tag_77\n      swap1\n      tag_58\n      jump\t// in\n    tag_77:\n      mload(0x40)\n      dup1\n      swap2\n      sub\n      swap1\n      revert\n    tag_76:\n        /* \"assessment.sol\":1535:1542  tickets */\n      0x04\n        /* \"assessment.sol\":1535:1554  tickets[seatNumber] */\n      0x00\n        /* \"assessment.sol\":1543:1553  seatNumber */\n      dup3\n        /* \"assessment.sol\":1535:1554  tickets[seatNumber] */\n      dup2\n      mstore\n      0x20\n      add\n      swap1\n      dup2\n      mstore\n      0x20\n      add\n      0x00\n      keccak256\n        /* \"assessment.sol\":1535:1563  tickets[seatNumber].isBooked */\n      0x02\n      add\n      0x00\n      swap1\n      sload\n      swap1\n      0x0100\n      exp\n      swap1\n      div\n      0xff\n      and\n        /* \"assessment.sol\":1527:1583  require(tickets[seatNumber].isBooked, \"Seat not booked\") */\n      tag_78\n      jumpi\n      mload(0x40)\n      0x08c379a000000000000000000000000000000000000000000000000000000000\n      dup2\n      mstore\n      0x04\n      add\n      tag_79\n      swap1\n      tag_80\n      jump\t// in\n    tag_79:\n      mload(0x40)\n      dup1\n      swap2\n      sub\n      swap1\n      revert\n    tag_78:\n        /* \"assessment.sol\":1698:1708  msg.sender */\n      caller\n        /* \"assessment.sol\":1665:1708  tickets[seatNumber].passenger == msg.sender */\n      0xffffffffffffffffffffffffffffffffffffffff\n      and\n        /* \"assessment.sol\":1665:1672  tickets */\n      0x04\n        /* \"assessment.sol\":1665:1684  tickets[seatNumber] */\n      0x00\n        /* \"assessment.sol\":1673:1683  seatNumber */\n      dup4\n        /* \"assessment.sol\":1665:1684  tickets[seatNumber] */\n      dup2\n      mstore\n      0x20\n      add\n      swap1\n      dup2\n      mstore\n      0x20\n      add\n      0x00\n      keccak256\n        /* \"assessment.sol\":1665:1694  tickets[seatNumber].passenger */\n      0x00\n      add\n      0x00\n      swap1\n      sload\n      swap1\n      0x0100\n      exp\n      swap1\n      div\n      0xffffffffffffffffffffffffffffffffffffffff\n      and\n        /* \"assessment.sol\":1665:1708  tickets[seatNumber].passenger == msg.sender */\n      0xffffffffffffffffffffffffffffffffffffffff\n      and\n      eq\n        /* \"assessment.sol\":1657:1733  require(tickets[seatNumber].passenger == msg.sender, \"Not the ticket owner\") */\n      tag_81\n      jumpi\n      mload(0x40)\n      0x08c379a000000000000000000000000000000000000000000000000000000000\n      dup2\n      mstore\n      0x04\n      add\n      tag_82\n      swap1\n      tag_83\n      jump\t// in\n    tag_82:\n      mload(0x40)\n      dup1\n      swap2\n      sub\n      swap1\n      revert\n    tag_81:\n        /* \"assessment.sol\":1808:1813  false */\n      0x00\n        /* \"assessment.sol\":1777:1784  tickets */\n      0x04\n        /* \"assessment.sol\":1777:1796  tickets[seatNumber] */\n      0x00\n        /* \"assessment.sol\":1785:1795  seatNumber */\n      dup4\n        /* \"assessment.sol\":1777:1796  tickets[seatNumber] */\n      dup2\n      mstore\n      0x20\n      add\n      swap1\n      dup2\n      mstore\n      0x20\n      add\n      0x00\n      keccak256\n        /* \"assessment.sol\":1777:1805  tickets[seatNumber].isBooked */\n      0x02\n      add\n      0x00\n        /* \"assessment.sol\":1777:1813  tickets[seatNumber].isBooked = false */\n      0x0100\n      exp\n      dup2\n      sload\n      dup2\n      0xff\n      mul\n      not\n      and\n      swap1\n      dup4\n      iszero\n      iszero\n      mul\n      or\n      swap1\n      sstore\n      pop\n        /* \"assessment.sol\":1824:1835  bookedSeats */\n      0x03\n      0x00\n        /* \"assessment.sol\":1824:1837  bookedSeats-- */\n      dup2\n      sload\n      dup1\n      swap3\n      swap2\n      swap1\n      tag_84\n      swap1\n      tag_85\n      jump\t// in\n    tag_84:\n      swap2\n      swap1\n      pop\n      sstore\n      pop\n        /* \"assessment.sol\":1894:1904  msg.sender */\n      caller\n        /* \"assessment.sol\":1886:1914  payable(msg.sender).transfer */\n      0xffffffffffffffffffffffffffffffffffffffff\n      and\n        /* \"assessment.sol\":1886:1927  payable(msg.sender).transfer(ticketPrice) */\n      0x08fc\n        /* \"assessment.sol\":1915:1926  ticketPrice */\n      sload(0x01)\n        /* \"assessment.sol\":1886:1927  payable(msg.sender).transfer(ticketPrice) */\n      swap1\n      dup2\n      iszero\n      mul\n      swap1\n      mload(0x40)\n      0x00\n      mload(0x40)\n      dup1\n      dup4\n      sub\n      dup2\n      dup6\n      dup9\n      dup9\n      call\n      swap4\n      pop\n      pop\n      pop\n      pop\n      iszero\n      dup1\n      iszero\n      tag_87\n      jumpi\n      returndatasize\n      0x00\n      dup1\n      returndatacopy\n      revert(0x00, returndatasize)\n    tag_87:\n      pop\n        /* \"assessment.sol\":2010:2017  tickets */\n      0x04\n        /* \"assessment.sol\":2010:2029  tickets[seatNumber] */\n      0x00\n        /* \"assessment.sol\":2018:2028  seatNumber */\n      dup3\n        /* \"assessment.sol\":2010:2029  tickets[seatNumber] */\n      dup2\n      mstore\n      0x20\n      add\n      swap1\n      dup2\n      mstore\n      0x20\n      add\n      0x00\n      keccak256\n        /* \"assessment.sol\":2010:2038  tickets[seatNumber].isBooked */\n      0x02\n      add\n      0x00\n      swap1\n      sload\n      swap1\n      0x0100\n      exp\n      swap1\n      div\n      0xff\n      and\n        /* \"assessment.sol\":2006:2103  if (tickets[seatNumber].isBooked) {... */\n      iszero\n      tag_88\n      jumpi\n        /* \"assessment.sol\":2055:2091  revert(\"Ticket cancellation failed\") */\n      mload(0x40)\n      0x08c379a000000000000000000000000000000000000000000000000000000000\n      dup2\n      mstore\n      0x04\n      add\n      tag_89\n      swap1\n      tag_90\n      jump\t// in\n    tag_89:\n      mload(0x40)\n      dup1\n      swap2\n      sub\n      swap1\n      revert\n        /* \"assessment.sol\":2006:2103  if (tickets[seatNumber].isBooked) {... */\n    tag_88:\n        /* \"assessment.sol\":1298:2110  function cancelTicket(uint256 seatNumber) public {... */\n      pop\n      jump\t// out\n        /* \"#utility.yul\":7:84   */\n    tag_91:\n        /* \"#utility.yul\":44:51   */\n      0x00\n        /* \"#utility.yul\":73:78   */\n      dup2\n        /* \"#utility.yul\":62:78   */\n      swap1\n      pop\n        /* \"#utility.yul\":7:84   */\n      swap2\n      swap1\n      pop\n      jump\t// out\n        /* \"#utility.yul\":90:208   */\n    tag_92:\n        /* \"#utility.yul\":177:201   */\n      tag_122\n        /* \"#utility.yul\":195:200   */\n      dup2\n        /* \"#utility.yul\":177:201   */\n      tag_91\n      jump\t// in\n    tag_122:\n        /* \"#utility.yul\":172:175   */\n      dup3\n        /* \"#utility.yul\":165:202   */\n      mstore\n        /* \"#utility.yul\":90:208   */\n      pop\n      pop\n      jump\t// out\n        /* \"#utility.yul\":214:436   */\n    tag_16:\n        /* \"#utility.yul\":307:311   */\n      0x00\n        /* \"#utility.yul\":345:347   */\n      0x20\n        /* \"#utility.yul\":334:343   */\n      dup3\n        /* \"#utility.yul\":330:348   */\n      add\n        /* \"#utility.yul\":322:348   */\n      swap1\n      pop\n        /* \"#utility.yul\":358:429   */\n      tag_124\n        /* \"#utility.yul\":426:427   */\n      0x00\n        /* \"#utility.yul\":415:424   */\n      dup4\n        /* \"#utility.yul\":411:428   */\n      add\n        /* \"#utility.yul\":402:408   */\n      dup5\n        /* \"#utility.yul\":358:429   */\n      tag_92\n      jump\t// in\n    tag_124:\n        /* \"#utility.yul\":214:436   */\n      swap3\n      swap2\n      pop\n      pop\n      jump\t// out\n        /* \"#utility.yul\":523:640   */\n    tag_94:\n        /* \"#utility.yul\":632:633   */\n      0x00\n        /* \"#utility.yul\":629:630   */\n      dup1\n        /* \"#utility.yul\":622:634   */\n      revert\n        /* \"#utility.yul\":769:891   */\n    tag_96:\n        /* \"#utility.yul\":842:866   */\n      tag_129\n        /* \"#utility.yul\":860:865   */\n      dup2\n        /* \"#utility.yul\":842:866   */\n      tag_91\n      jump\t// in\n    tag_129:\n        /* \"#utility.yul\":835:840   */\n      dup2\n        /* \"#utility.yul\":832:867   */\n      eq\n        /* \"#utility.yul\":822:885   */\n      tag_130\n      jumpi\n        /* \"#utility.yul\":881:882   */\n      0x00\n        /* \"#utility.yul\":878:879   */\n      dup1\n        /* \"#utility.yul\":871:883   */\n      revert\n        /* \"#utility.yul\":822:885   */\n    tag_130:\n        /* \"#utility.yul\":769:891   */\n      pop\n      jump\t// out\n        /* \"#utility.yul\":897:1036   */\n    tag_97:\n        /* \"#utility.yul\":943:948   */\n      0x00\n        /* \"#utility.yul\":981:987   */\n      dup2\n        /* \"#utility.yul\":968:988   */\n      calldataload\n        /* \"#utility.yul\":959:988   */\n      swap1\n      pop\n        /* \"#utility.yul\":997:1030   */\n      tag_132\n        /* \"#utility.yul\":1024:1029   */\n      dup2\n        /* \"#utility.yul\":997:1030   */\n      tag_96\n      jump\t// in\n    tag_132:\n        /* \"#utility.yul\":897:1036   */\n      swap3\n      swap2\n      pop\n      pop\n      jump\t// out\n        /* \"#utility.yul\":1042:1371   */\n    tag_23:\n        /* \"#utility.yul\":1101:1107   */\n      0x00\n        /* \"#utility.yul\":1150:1152   */\n      0x20\n        /* \"#utility.yul\":1138:1147   */\n      dup3\n        /* \"#utility.yul\":1129:1136   */\n      dup5\n        /* \"#utility.yul\":1125:1148   */\n      sub\n        /* \"#utility.yul\":1121:1153   */\n      slt\n        /* \"#utility.yul\":1118:1237   */\n      iszero\n      tag_134\n      jumpi\n        /* \"#utility.yul\":1156:1235   */\n      tag_135\n      tag_94\n      jump\t// in\n    tag_135:\n        /* \"#utility.yul\":1118:1237   */\n    tag_134:\n        /* \"#utility.yul\":1276:1277   */\n      0x00\n        /* \"#utility.yul\":1301:1354   */\n      tag_136\n        /* \"#utility.yul\":1346:1353   */\n      dup5\n        /* \"#utility.yul\":1337:1343   */\n      dup3\n        /* \"#utility.yul\":1326:1335   */\n      dup6\n        /* \"#utility.yul\":1322:1344   */\n      add\n        /* \"#utility.yul\":1301:1354   */\n      tag_97\n      jump\t// in\n    tag_136:\n        /* \"#utility.yul\":1291:1354   */\n      swap2\n      pop\n        /* \"#utility.yul\":1247:1364   */\n      pop\n        /* \"#utility.yul\":1042:1371   */\n      swap3\n      swap2\n      pop\n      pop\n      jump\t// out\n        /* \"#utility.yul\":1377:1503   */\n    tag_98:\n        /* \"#utility.yul\":1414:1421   */\n      0x00\n        /* \"#utility.yul\":1454:1496   */\n      0xffffffffffffffffffffffffffffffffffffffff\n        /* \"#utility.yul\":1447:1452   */\n      dup3\n        /* \"#utility.yul\":1443:1497   */\n      and\n        /* \"#utility.yul\":1432:1497   */\n      swap1\n      pop\n        /* \"#utility.yul\":1377:1503   */\n      swap2\n      swap1\n      pop\n      jump\t// out\n        /* \"#utility.yul\":1509:1605   */\n    tag_99:\n        /* \"#utility.yul\":1546:1553   */\n      0x00\n        /* \"#utility.yul\":1575:1599   */\n      tag_139\n        /* \"#utility.yul\":1593:1598   */\n      dup3\n        /* \"#utility.yul\":1575:1599   */\n      tag_98\n      jump\t// in\n    tag_139:\n        /* \"#utility.yul\":1564:1599   */\n      swap1\n      pop\n        /* \"#utility.yul\":1509:1605   */\n      swap2\n      swap1\n      pop\n      jump\t// out\n        /* \"#utility.yul\":1611:1729   */\n    tag_100:\n        /* \"#utility.yul\":1698:1722   */\n      tag_141\n        /* \"#utility.yul\":1716:1721   */\n      dup2\n        /* \"#utility.yul\":1698:1722   */\n      tag_99\n      jump\t// in\n    tag_141:\n        /* \"#utility.yul\":1693:1696   */\n      dup3\n        /* \"#utility.yul\":1686:1723   */\n      mstore\n        /* \"#utility.yul\":1611:1729   */\n      pop\n      pop\n      jump\t// out\n        /* \"#utility.yul\":1735:1825   */\n    tag_101:\n        /* \"#utility.yul\":1769:1776   */\n      0x00\n        /* \"#utility.yul\":1812:1817   */\n      dup2\n        /* \"#utility.yul\":1805:1818   */\n      iszero\n        /* \"#utility.yul\":1798:1819   */\n      iszero\n        /* \"#utility.yul\":1787:1819   */\n      swap1\n      pop\n        /* \"#utility.yul\":1735:1825   */\n      swap2\n      swap1\n      pop\n      jump\t// out\n        /* \"#utility.yul\":1831:1940   */\n    tag_102:\n        /* \"#utility.yul\":1912:1933   */\n      tag_144\n        /* \"#utility.yul\":1927:1932   */\n      dup2\n        /* \"#utility.yul\":1912:1933   */\n      tag_101\n      jump\t// in\n    tag_144:\n        /* \"#utility.yul\":1907:1910   */\n      dup3\n        /* \"#utility.yul\":1900:1934   */\n      mstore\n        /* \"#utility.yul\":1831:1940   */\n      pop\n      pop\n      jump\t// out\n        /* \"#utility.yul\":1946:2376   */\n    tag_37:\n        /* \"#utility.yul\":2089:2093   */\n      0x00\n        /* \"#utility.yul\":2127:2129   */\n      0x60\n        /* \"#utility.yul\":2116:2125   */\n      dup3\n        /* \"#utility.yul\":2112:2130   */\n      add\n        /* \"#utility.yul\":2104:2130   */\n      swap1\n      pop\n        /* \"#utility.yul\":2140:2211   */\n      tag_146\n        /* \"#utility.yul\":2208:2209   */\n      0x00\n        /* \"#utility.yul\":2197:2206   */\n      dup4\n        /* \"#utility.yul\":2193:2210   */\n      add\n        /* \"#utility.yul\":2184:2190   */\n      dup7\n        /* \"#utility.yul\":2140:2211   */\n      tag_100\n      jump\t// in\n    tag_146:\n        /* \"#utility.yul\":2221:2293   */\n      tag_147\n        /* \"#utility.yul\":2289:2291   */\n      0x20\n        /* \"#utility.yul\":2278:2287   */\n      dup4\n        /* \"#utility.yul\":2274:2292   */\n      add\n        /* \"#utility.yul\":2265:2271   */\n      dup6\n        /* \"#utility.yul\":2221:2293   */\n      tag_92\n      jump\t// in\n    tag_147:\n        /* \"#utility.yul\":2303:2369   */\n      tag_148\n        /* \"#utility.yul\":2365:2367   */\n      0x40\n        /* \"#utility.yul\":2354:2363   */\n      dup4\n        /* \"#utility.yul\":2350:2368   */\n      add\n        /* \"#utility.yul\":2341:2347   */\n      dup5\n        /* \"#utility.yul\":2303:2369   */\n      tag_102\n      jump\t// in\n    tag_148:\n        /* \"#utility.yul\":1946:2376   */\n      swap5\n      swap4\n      pop\n      pop\n      pop\n      pop\n      jump\t// out\n        /* \"#utility.yul\":2382:2604   */\n    tag_46:\n        /* \"#utility.yul\":2475:2479   */\n      0x00\n        /* \"#utility.yul\":2513:2515   */\n      0x20\n        /* \"#utility.yul\":2502:2511   */\n      dup3\n        /* \"#utility.yul\":2498:2516   */\n      add\n        /* \"#utility.yul\":2490:2516   */\n      swap1\n      pop\n        /* \"#utility.yul\":2526:2597   */\n      tag_150\n        /* \"#utility.yul\":2594:2595   */\n      0x00\n        /* \"#utility.yul\":2583:2592   */\n      dup4\n        /* \"#utility.yul\":2579:2596   */\n      add\n        /* \"#utility.yul\":2570:2576   */\n      dup5\n        /* \"#utility.yul\":2526:2597   */\n      tag_100\n      jump\t// in\n    tag_150:\n        /* \"#utility.yul\":2382:2604   */\n      swap3\n      swap2\n      pop\n      pop\n      jump\t// out\n        /* \"#utility.yul\":2610:2779   */\n    tag_103:\n        /* \"#utility.yul\":2694:2705   */\n      0x00\n        /* \"#utility.yul\":2728:2734   */\n      dup3\n        /* \"#utility.yul\":2723:2726   */\n      dup3\n        /* \"#utility.yul\":2716:2735   */\n      mstore\n        /* \"#utility.yul\":2768:2772   */\n      0x20\n        /* \"#utility.yul\":2763:2766   */\n      dup3\n        /* \"#utility.yul\":2759:2773   */\n      add\n        /* \"#utility.yul\":2744:2773   */\n      swap1\n      pop\n        /* \"#utility.yul\":2610:2779   */\n      swap3\n      swap2\n      pop\n      pop\n      jump\t// out\n        /* \"#utility.yul\":2785:2957   */\n    tag_104:\n        /* \"#utility.yul\":2925:2949   */\n      0x496e636f7272656374207469636b657420707269636500000000000000000000\n        /* \"#utility.yul\":2921:2922   */\n      0x00\n        /* \"#utility.yul\":2913:2919   */\n      dup3\n        /* \"#utility.yul\":2909:2923   */\n      add\n        /* \"#utility.yul\":2902:2950   */\n      mstore\n        /* \"#utility.yul\":2785:2957   */\n      pop\n      jump\t// out\n        /* \"#utility.yul\":2963:3329   */\n    tag_105:\n        /* \"#utility.yul\":3105:3108   */\n      0x00\n        /* \"#utility.yul\":3126:3193   */\n      tag_154\n        /* \"#utility.yul\":3190:3192   */\n      0x16\n        /* \"#utility.yul\":3185:3188   */\n      dup4\n        /* \"#utility.yul\":3126:3193   */\n      tag_103\n      jump\t// in\n    tag_154:\n        /* \"#utility.yul\":3119:3193   */\n      swap2\n      pop\n        /* \"#utility.yul\":3202:3295   */\n      tag_155\n        /* \"#utility.yul\":3291:3294   */\n      dup3\n        /* \"#utility.yul\":3202:3295   */\n      tag_104\n      jump\t// in\n    tag_155:\n        /* \"#utility.yul\":3320:3322   */\n      0x20\n        /* \"#utility.yul\":3315:3318   */\n      dup3\n        /* \"#utility.yul\":3311:3323   */\n      add\n        /* \"#utility.yul\":3304:3323   */\n      swap1\n      pop\n        /* \"#utility.yul\":2963:3329   */\n      swap2\n      swap1\n      pop\n      jump\t// out\n        /* \"#utility.yul\":3335:3754   */\n    tag_54:\n        /* \"#utility.yul\":3501:3505   */\n      0x00\n        /* \"#utility.yul\":3539:3541   */\n      0x20\n        /* \"#utility.yul\":3528:3537   */\n      dup3\n        /* \"#utility.yul\":3524:3542   */\n      add\n        /* \"#utility.yul\":3516:3542   */\n      swap1\n      pop\n        /* \"#utility.yul\":3588:3597   */\n      dup2\n        /* \"#utility.yul\":3582:3586   */\n      dup2\n        /* \"#utility.yul\":3578:3598   */\n      sub\n        /* \"#utility.yul\":3574:3575   */\n      0x00\n        /* \"#utility.yul\":3563:3572   */\n      dup4\n        /* \"#utility.yul\":3559:3576   */\n      add\n        /* \"#utility.yul\":3552:3599   */\n      mstore\n        /* \"#utility.yul\":3616:3747   */\n      tag_157\n        /* \"#utility.yul\":3742:3746   */\n      dup2\n        /* \"#utility.yul\":3616:3747   */\n      tag_105\n      jump\t// in\n    tag_157:\n        /* \"#utility.yul\":3608:3747   */\n      swap1\n      pop\n        /* \"#utility.yul\":3335:3754   */\n      swap2\n      swap1\n      pop\n      jump\t// out\n        /* \"#utility.yul\":3760:3929   */\n    tag_106:\n        /* \"#utility.yul\":3900:3921   */\n      0x496e76616c69642073656174206e756d62657200000000000000000000000000\n        /* \"#utility.yul\":3896:3897   */\n      0x00\n        /* \"#utility.yul\":3888:3894   */\n      dup3\n        /* \"#utility.yul\":3884:3898   */\n      add\n        /* \"#utility.yul\":3877:3922   */\n      mstore\n        /* \"#utility.yul\":3760:3929   */\n      pop\n      jump\t// out\n        /* \"#utility.yul\":3935:4301   */\n    tag_107:\n        /* \"#utility.yul\":4077:4080   */\n      0x00\n        /* \"#utility.yul\":4098:4165   */\n      tag_160\n        /* \"#utility.yul\":4162:4164   */\n      0x13\n        /* \"#utility.yul\":4157:4160   */\n      dup4\n        /* \"#utility.yul\":4098:4165   */\n      tag_103\n      jump\t// in\n    tag_160:\n        /* \"#utility.yul\":4091:4165   */\n      swap2\n      pop\n        /* \"#utility.yul\":4174:4267   */\n      tag_161\n        /* \"#utility.yul\":4263:4266   */\n      dup3\n        /* \"#utility.yul\":4174:4267   */\n      tag_106\n      jump\t// in\n    tag_161:\n        /* \"#utility.yul\":4292:4294   */\n      0x20\n        /* \"#utility.yul\":4287:4290   */\n      dup3\n        /* \"#utility.yul\":4283:4295   */\n      add\n        /* \"#utility.yul\":4276:4295   */\n      swap1\n      pop\n        /* \"#utility.yul\":3935:4301   */\n      swap2\n      swap1\n      pop\n      jump\t// out\n        /* \"#utility.yul\":4307:4726   */\n    tag_58:\n        /* \"#utility.yul\":4473:4477   */\n      0x00\n        /* \"#utility.yul\":4511:4513   */\n      0x20\n        /* \"#utility.yul\":4500:4509   */\n      dup3\n        /* \"#utility.yul\":4496:4514   */\n      add\n        /* \"#utility.yul\":4488:4514   */\n      swap1\n      pop\n        /* \"#utility.yul\":4560:4569   */\n      dup2\n        /* \"#utility.yul\":4554:4558   */\n      dup2\n        /* \"#utility.yul\":4550:4570   */\n      sub\n        /* \"#utility.yul\":4546:4547   */\n      0x00\n        /* \"#utility.yul\":4535:4544   */\n      dup4\n        /* \"#utility.yul\":4531:4548   */\n      add\n        /* \"#utility.yul\":4524:4571   */\n      mstore\n        /* \"#utility.yul\":4588:4719   */\n      tag_163\n        /* \"#utility.yul\":4714:4718   */\n      dup2\n        /* \"#utility.yul\":4588:4719   */\n      tag_107\n      jump\t// in\n    tag_163:\n        /* \"#utility.yul\":4580:4719   */\n      swap1\n      pop\n        /* \"#utility.yul\":4307:4726   */\n      swap2\n      swap1\n      pop\n      jump\t// out\n        /* \"#utility.yul\":4732:4901   */\n    tag_108:\n        /* \"#utility.yul\":4872:4893   */\n      0x5365617420616c726561647920626f6f6b656400000000000000000000000000\n        /* \"#utility.yul\":4868:4869   */\n      0x00\n        /* \"#utility.yul\":4860:4866   */\n      dup3\n        /* \"#utility.yul\":4856:4870   */\n      add\n        /* \"#utility.yul\":4849:4894   */\n      mstore\n        /* \"#utility.yul\":4732:4901   */\n      pop\n      jump\t// out\n        /* \"#utility.yul\":4907:5273   */\n    tag_109:\n        /* \"#utility.yul\":5049:5052   */\n      0x00\n        /* \"#utility.yul\":5070:5137   */\n      tag_166\n        /* \"#utility.yul\":5134:5136   */\n      0x13\n        /* \"#utility.yul\":5129:5132   */\n      dup4\n        /* \"#utility.yul\":5070:5137   */\n      tag_103\n      jump\t// in\n    tag_166:\n        /* \"#utility.yul\":5063:5137   */\n      swap2\n      pop\n        /* \"#utility.yul\":5146:5239   */\n      tag_167\n        /* \"#utility.yul\":5235:5238   */\n      dup3\n        /* \"#utility.yul\":5146:5239   */\n      tag_108\n      jump\t// in\n    tag_167:\n        /* \"#utility.yul\":5264:5266   */\n      0x20\n        /* \"#utility.yul\":5259:5262   */\n      dup3\n        /* \"#utility.yul\":5255:5267   */\n      add\n        /* \"#utility.yul\":5248:5267   */\n      swap1\n      pop\n        /* \"#utility.yul\":4907:5273   */\n      swap2\n      swap1\n      pop\n      jump\t// out\n        /* \"#utility.yul\":5279:5698   */\n    tag_61:\n        /* \"#utility.yul\":5445:5449   */\n      0x00\n        /* \"#utility.yul\":5483:5485   */\n      0x20\n        /* \"#utility.yul\":5472:5481   */\n      dup3\n        /* \"#utility.yul\":5468:5486   */\n      add\n        /* \"#utility.yul\":5460:5486   */\n      swap1\n      pop\n        /* \"#utility.yul\":5532:5541   */\n      dup2\n        /* \"#utility.yul\":5526:5530   */\n      dup2\n        /* \"#utility.yul\":5522:5542   */\n      sub\n        /* \"#utility.yul\":5518:5519   */\n      0x00\n        /* \"#utility.yul\":5507:5516   */\n      dup4\n        /* \"#utility.yul\":5503:5520   */\n      add\n        /* \"#utility.yul\":5496:5543   */\n      mstore\n        /* \"#utility.yul\":5560:5691   */\n      tag_169\n        /* \"#utility.yul\":5686:5690   */\n      dup2\n        /* \"#utility.yul\":5560:5691   */\n      tag_109\n      jump\t// in\n    tag_169:\n        /* \"#utility.yul\":5552:5691   */\n      swap1\n      pop\n        /* \"#utility.yul\":5279:5698   */\n      swap2\n      swap1\n      pop\n      jump\t// out\n        /* \"#utility.yul\":5704:5884   */\n    tag_110:\n        /* \"#utility.yul\":5752:5829   */\n      0x4e487b7100000000000000000000000000000000000000000000000000000000\n        /* \"#utility.yul\":5749:5750   */\n      0x00\n        /* \"#utility.yul\":5742:5830   */\n      mstore\n        /* \"#utility.yul\":5849:5853   */\n      0x11\n        /* \"#utility.yul\":5846:5847   */\n      0x04\n        /* \"#utility.yul\":5839:5854   */\n      mstore\n        /* \"#utility.yul\":5873:5877   */\n      0x24\n        /* \"#utility.yul\":5870:5871   */\n      0x00\n        /* \"#utility.yul\":5863:5878   */\n      revert\n        /* \"#utility.yul\":5890:6123   */\n    tag_63:\n        /* \"#utility.yul\":5929:5932   */\n      0x00\n        /* \"#utility.yul\":5952:5976   */\n      tag_172\n        /* \"#utility.yul\":5970:5975   */\n      dup3\n        /* \"#utility.yul\":5952:5976   */\n      tag_91\n      jump\t// in\n    tag_172:\n        /* \"#utility.yul\":5943:5976   */\n      swap2\n      pop\n        /* \"#utility.yul\":5998:6064   */\n      0xffffffffffffffffffffffffffffffffffffffffffffffffffffffffffffffff\n        /* \"#utility.yul\":5991:5996   */\n      dup3\n        /* \"#utility.yul\":5988:6065   */\n      sub\n        /* \"#utility.yul\":5985:6088   */\n      tag_173\n      jumpi\n        /* \"#utility.yul\":6068:6086   */\n      tag_174\n      tag_110\n      jump\t// in\n    tag_174:\n        /* \"#utility.yul\":5985:6088   */\n    tag_173:\n        /* \"#utility.yul\":6115:6116   */\n      0x01\n        /* \"#utility.yul\":6108:6113   */\n      dup3\n        /* \"#utility.yul\":6104:6117   */\n      add\n        /* \"#utility.yul\":6097:6117   */\n      swap1\n      pop\n        /* \"#utility.yul\":5890:6123   */\n      swap2\n      swap1\n      pop\n      jump\t// out\n        /* \"#utility.yul\":6129:6309   */\n    tag_66:\n        /* \"#utility.yul\":6177:6254   */\n      0x4e487b7100000000000000000000000000000000000000000000000000000000\n        /* \"#utility.yul\":6174:6175   */\n      0x00\n        /* \"#utility.yul\":6167:6255   */\n      mstore\n        /* \"#utility.yul\":6274:6278   */\n      0x01\n        /* \"#utility.yul\":6271:6272   */\n      0x04\n        /* \"#utility.yul\":6264:6279   */\n      mstore\n        /* \"#utility.yul\":6298:6302   */\n      0x24\n        /* \"#utility.yul\":6295:6296   */\n      0x00\n        /* \"#utility.yul\":6288:6303   */\n      revert\n        /* \"#utility.yul\":6315:6535   */\n    tag_111:\n        /* \"#utility.yul\":6455:6489   */\n      0x4f6e6c7920746865206f776e65722063616e2077697468647261772066756e64\n        /* \"#utility.yul\":6451:6452   */\n      0x00\n        /* \"#utility.yul\":6443:6449   */\n      dup3\n        /* \"#utility.yul\":6439:6453   */\n      add\n        /* \"#utility.yul\":6432:6490   */\n      mstore\n        /* \"#utility.yul\":6524:6527   */\n      0x7300000000000000000000000000000000000000000000000000000000000000\n        /* \"#utility.yul\":6519:6521   */\n      0x20\n        /* \"#utility.yul\":6511:6517   */\n      dup3\n        /* \"#utility.yul\":6507:6522   */\n      add\n        /* \"#utility.yul\":6500:6528   */\n      mstore\n        /* \"#utility.yul\":6315:6535   */\n      pop\n      jump\t// out\n        /* \"#utility.yul\":6541:6907   */\n    tag_112:\n        /* \"#utility.yul\":6683:6686   */\n      0x00\n        /* \"#utility.yul\":6704:6771   */\n      tag_178\n        /* \"#utility.yul\":6768:6770   */\n      0x21\n        /* \"#utility.yul\":6763:6766   */\n      dup4\n        /* \"#utility.yul\":6704:6771   */\n      tag_103\n      jump\t// in\n    tag_178:\n        /* \"#utility.yul\":6697:6771   */\n      swap2\n      pop\n        /* \"#utility.yul\":6780:6873   */\n      tag_179\n        /* \"#utility.yul\":6869:6872   */\n      dup3\n        /* \"#utility.yul\":6780:6873   */\n      tag_111\n      jump\t// in\n    tag_179:\n        /* \"#utility.yul\":6898:6900   */\n      0x40\n        /* \"#utility.yul\":6893:6896   */\n      dup3\n        /* \"#utility.yul\":6889:6901   */\n      add\n        /* \"#utility.yul\":6882:6901   */\n      swap1\n      pop\n        /* \"#utility.yul\":6541:6907   */\n      swap2\n      swap1\n      pop\n      jump\t// out\n        /* \"#utility.yul\":6913:7332   */\n    tag_70:\n        /* \"#utility.yul\":7079:7083   */\n      0x00\n        /* \"#utility.yul\":7117:7119   */\n      0x20\n        /* \"#utility.yul\":7106:7115   */\n      dup3\n        /* \"#utility.yul\":7102:7120   */\n      add\n        /* \"#utility.yul\":7094:7120   */\n      swap1\n      pop\n        /* \"#utility.yul\":7166:7175   */\n      dup2\n        /* \"#utility.yul\":7160:7164   */\n      dup2\n        /* \"#utility.yul\":7156:7176   */\n      sub\n        /* \"#utility.yul\":7152:7153   */\n      0x00\n        /* \"#utility.yul\":7141:7150   */\n      dup4\n        /* \"#utility.yul\":7137:7154   */\n      add\n        /* \"#utility.yul\":7130:7177   */\n      mstore\n        /* \"#utility.yul\":7194:7325   */\n      tag_181\n        /* \"#utility.yul\":7320:7324   */\n      dup2\n        /* \"#utility.yul\":7194:7325   */\n      tag_112\n      jump\t// in\n    tag_181:\n        /* \"#utility.yul\":7186:7325   */\n      swap1\n      pop\n        /* \"#utility.yul\":6913:7332   */\n      swap2\n      swap1\n      pop\n      jump\t// out\n        /* \"#utility.yul\":7338:7503   */\n    tag_113:\n        /* \"#utility.yul\":7478:7495   */\n      0x53656174206e6f7420626f6f6b65640000000000000000000000000000000000\n        /* \"#utility.yul\":7474:7475   */\n      0x00\n        /* \"#utility.yul\":7466:7472   */\n      dup3\n        /* \"#utility.yul\":7462:7476   */\n      add\n        /* \"#utility.yul\":7455:7496   */\n      mstore\n        /* \"#utility.yul\":7338:7503   */\n      pop\n      jump\t// out\n        /* \"#utility.yul\":7509:7875   */\n    tag_114:\n        /* \"#utility.yul\":7651:7654   */\n      0x00\n        /* \"#utility.yul\":7672:7739   */\n      tag_184\n        /* \"#utility.yul\":7736:7738   */\n      0x0f\n        /* \"#utility.yul\":7731:7734   */\n      dup4\n        /* \"#utility.yul\":7672:7739   */\n      tag_103\n      jump\t// in\n    tag_184:\n        /* \"#utility.yul\":7665:7739   */\n      swap2\n      pop\n        /* \"#utility.yul\":7748:7841   */\n      tag_185\n        /* \"#utility.yul\":7837:7840   */\n      dup3\n        /* \"#utility.yul\":7748:7841   */\n      tag_113\n      jump\t// in\n    tag_185:\n        /* \"#utility.yul\":7866:7868   */\n      0x20\n        /* \"#utility.yul\":7861:7864   */\n      dup3\n        /* \"#utility.yul\":7857:7869   */\n      add\n        /* \"#utility.yul\":7850:7869   */\n      swap1\n      pop\n        /* \"#utility.yul\":7509:7875   */\n      swap2\n      swap1\n      pop\n      jump\t// out\n        /* \"#utility.yul\":7881:8300   */\n    tag_80:\n        /* \"#utility.yul\":8047:8051   */\n      0x00\n        /* \"#utility.yul\":8085:8087   */\n      0x20\n        /* \"#utility.yul\":8074:8083   */\n      dup3\n        /* \"#utility.yul\":8070:8088   */\n      add\n        /* \"#utility.yul\":8062:8088   */\n      swap1\n      pop\n        /* \"#utility.yul\":8134:8143   */\n      dup2\n        /* \"#utility.yul\":8128:8132   */\n      dup2\n        /* \"#utility.yul\":8124:8144   */\n      sub\n        /* \"#utility.yul\":8120:8121   */\n      0x00\n        /* \"#utility.yul\":8109:8118   */\n      dup4\n        /* \"#utility.yul\":8105:8122   */\n      add\n        /* \"#utility.yul\":8098:8145   */\n      mstore\n        /* \"#utility.yul\":8162:8293   */\n      tag_187\n        /* \"#utility.yul\":8288:8292   */\n      dup2\n        /* \"#utility.yul\":8162:8293   */\n      tag_114\n      jump\t// in\n    tag_187:\n        /* \"#utility.yul\":8154:8293   */\n      swap1\n      pop\n        /* \"#utility.yul\":7881:8300   */\n      swap2\n      swap1\n      pop\n      jump\t// out\n        /* \"#utility.yul\":8306:8476   */\n    tag_115:\n        /* \"#utility.yul\":8446:8468   */\n      0x4e6f7420746865207469636b6574206f776e6572000000000000000000000000\n        /* \"#utility.yul\":8442:8443   */\n      0x00\n        /* \"#utility.yul\":8434:8440   */\n      dup3\n        /* \"#utility.yul\":8430:8444   */\n      add\n        /* \"#utility.yul\":8423:8469   */\n      mstore\n        /* \"#utility.yul\":8306:8476   */\n      pop\n      jump\t// out\n        /* \"#utility.yul\":8482:8848   */\n    tag_116:\n        /* \"#utility.yul\":8624:8627   */\n      0x00\n        /* \"#utility.yul\":8645:8712   */\n      tag_190\n        /* \"#utility.yul\":8709:8711   */\n      0x14\n        /* \"#utility.yul\":8704:8707   */\n      dup4\n        /* \"#utility.yul\":8645:8712   */\n      tag_103\n      jump\t// in\n    tag_190:\n        /* \"#utility.yul\":8638:8712   */\n      swap2\n      pop\n        /* \"#utility.yul\":8721:8814   */\n      tag_191\n        /* \"#utility.yul\":8810:8813   */\n      dup3\n        /* \"#utility.yul\":8721:8814   */\n      tag_115\n      jump\t// in\n    tag_191:\n        /* \"#utility.yul\":8839:8841   */\n      0x20\n        /* \"#utility.yul\":8834:8837   */\n      dup3\n        /* \"#utility.yul\":8830:8842   */\n      add\n        /* \"#utility.yul\":8823:8842   */\n      swap1\n      pop\n        /* \"#utility.yul\":8482:8848   */\n      swap2\n      swap1\n      pop\n      jump\t// out\n        /* \"#utility.yul\":8854:9273   */\n    tag_83:\n        /* \"#utility.yul\":9020:9024   */\n      0x00\n        /* \"#utility.yul\":9058:9060   */\n      0x20\n        /* \"#utility.yul\":9047:9056   */\n      dup3\n        /* \"#utility.yul\":9043:9061   */\n      add\n        /* \"#utility.yul\":9035:9061   */\n      swap1\n      pop\n        /* \"#utility.yul\":9107:9116   */\n      dup2\n        /* \"#utility.yul\":9101:9105   */\n      dup2\n        /* \"#utility.yul\":9097:9117   */\n      sub\n        /* \"#utility.yul\":9093:9094   */\n      0x00\n        /* \"#utility.yul\":9082:9091   */\n      dup4\n        /* \"#utility.yul\":9078:9095   */\n      add\n        /* \"#utility.yul\":9071:9118   */\n      mstore\n        /* \"#utility.yul\":9135:9266   */\n      tag_193\n        /* \"#utility.yul\":9261:9265   */\n      dup2\n        /* \"#utility.yul\":9135:9266   */\n      tag_116\n      jump\t// in\n    tag_193:\n        /* \"#utility.yul\":9127:9266   */\n      swap1\n      pop\n        /* \"#utility.yul\":8854:9273   */\n      swap2\n      swap1\n      pop\n      jump\t// out\n        /* \"#utility.yul\":9279:9450   */\n    tag_85:\n        /* \"#utility.yul\":9318:9321   */\n      0x00\n        /* \"#utility.yul\":9341:9365   */\n      tag_195\n        /* \"#utility.yul\":9359:9364   */\n      dup3\n        /* \"#utility.yul\":9341:9365   */\n      tag_91\n      jump\t// in\n    tag_195:\n        /* \"#utility.yul\":9332:9365   */\n      swap2\n      pop\n        /* \"#utility.yul\":9387:9391   */\n      0x00\n        /* \"#utility.yul\":9380:9385   */\n      dup3\n        /* \"#utility.yul\":9377:9392   */\n      sub\n        /* \"#utility.yul\":9374:9415   */\n      tag_196\n      jumpi\n        /* \"#utility.yul\":9395:9413   */\n      tag_197\n      tag_110\n      jump\t// in\n    tag_197:\n        /* \"#utility.yul\":9374:9415   */\n    tag_196:\n        /* \"#utility.yul\":9442:9443   */\n      0x01\n        /* \"#utility.yul\":9435:9440   */\n      dup3\n        /* \"#utility.yul\":9431:9444   */\n      sub\n        /* \"#utility.yul\":9424:9444   */\n      swap1\n      pop\n        /* \"#utility.yul\":9279:9450   */\n      swap2\n      swap1\n      pop\n      jump\t// out\n        /* \"#utility.yul\":9456:9632   */\n    tag_117:\n        /* \"#utility.yul\":9596:9624   */\n      0x5469636b65742063616e63656c6c6174696f6e206661696c6564000000000000\n        /* \"#utility.yul\":9592:9593   */\n      0x00\n        /* \"#utility.yul\":9584:9590   */\n      dup3\n        /* \"#utility.yul\":9580:9594   */\n      add\n        /* \"#utility.yul\":9573:9625   */\n      mstore\n        /* \"#utility.yul\":9456:9632   */\n      pop\n      jump\t// out\n        /* \"#utility.yul\":9638:10004   */\n    tag_118:\n        /* \"#utility.yul\":9780:9783   */\n      0x00\n        /* \"#utility.yul\":9801:9868   */\n      tag_200\n        /* \"#utility.yul\":9865:9867   */\n      0x1a\n        /* \"#utility.yul\":9860:9863   */\n      dup4\n        /* \"#utility.yul\":9801:9868   */\n      tag_103\n      jump\t// in\n    tag_200:\n        /* \"#utility.yul\":9794:9868   */\n      swap2\n      pop\n        /* \"#utility.yul\":9877:9970   */\n      tag_201\n        /* \"#utility.yul\":9966:9969   */\n      dup3\n        /* \"#utility.yul\":9877:9970   */\n      tag_117\n      jump\t// in\n    tag_201:\n        /* \"#utility.yul\":9995:9997   */\n      0x20\n        /* \"#utility.yul\":9990:9993   */\n      dup3\n        /* \"#utility.yul\":9986:9998   */\n      add\n        /* \"#utility.yul\":9979:9998   */\n      swap1\n      pop\n        /* \"#utility.yul\":9638:10004   */\n      swap2\n      swap1\n      pop\n      jump\t// out\n        /* \"#utility.yul\":10010:10429   */\n    tag_90:\n        /* \"#utility.yul\":10176:10180   */\n      0x00\n        /* \"#utility.yul\":10214:10216   */\n      0x20\n        /* \"#utility.yul\":10203:10212   */\n      dup3\n        /* \"#utility.yul\":10199:10217   */\n      add\n        /* \"#utility.yul\":10191:10217   */\n      swap1\n      pop\n        /* \"#utility.yul\":10263:10272   */\n      dup2\n        /* \"#utility.yul\":10257:10261   */\n      dup2\n        /* \"#utility.yul\":10253:10273   */\n      sub\n        /* \"#utility.yul\":10249:10250   */\n      0x00\n        /* \"#utility.yul\":10238:10247   */\n      dup4\n        /* \"#utility.yul\":10234:10251   */\n      add\n        /* \"#utility.yul\":10227:10274   */\n      mstore\n        /* \"#utility.yul\":10291:10422   */\n      tag_203\n        /* \"#utility.yul\":10417:10421   */\n      dup2\n        /* \"#utility.yul\":10291:10422   */\n      tag_118\n      jump\t// in\n    tag_203:\n        /* \"#utility.yul\":10283:10422   */\n      swap1\n      pop\n        /* \"#utility.yul\":10010:10429   */\n      swap2\n      swap1\n      pop\n      jump\t// out\n\n    auxdata: 0xa2646970667358221220d764868ded6c4f09c8a48e20bab554dc815b83d4c7c16a9733a5836050684c8f64736f6c63430008190033\n}\n",
				"bytecode": {
					"linkReferences": {},
					"object": "608060405234801561000f575f80fd5b50604051610df2380380610df2833981810160405281019061003191906100c3565b335f806101000a81548173ffffffffffffffffffffffffffffffffffffffff021916908373ffffffffffffffffffffffffffffffffffffffff16021790555081600281905550806001819055505f6003819055505050610101565b5f80fd5b5f819050919050565b6100a281610090565b81146100ac575f80fd5b50565b5f815190506100bd81610099565b92915050565b5f80604083850312156100d9576100d861008c565b5b5f6100e6858286016100af565b92505060206100f7858286016100af565b9150509250929050565b610ce48061010e5f395ff3fe608060405260043610610085575f3560e01c806324600fc31161005857806324600fc31461012357806350b44712146101395780635ebb833b146101775780638da5cb5b146101a1578063ee355b1f146101cb57610085565b80631209b1f6146100895780631bd50859146100b35780631c91a65e146100dd5780631ffc615e146100f9575b5f80fd5b348015610094575f80fd5b5061009d6101f3565b6040516100aa91906107bf565b60405180910390f35b3480156100be575f80fd5b506100c76101f9565b6040516100d491906107bf565b60405180910390f35b6100f760048036038101906100f29190610806565b6101ff565b005b348015610104575f80fd5b5061010d6103f1565b60405161011a91906107bf565b60405180910390f35b34801561012e575f80fd5b506101376103f7565b005b348015610144575f80fd5b5061015f600480360381019061015a9190610806565b6104ee565b60405161016e9392919061088a565b60405180910390f35b348015610182575f80fd5b5061018b61053f565b60405161019891906107bf565b60405180910390f35b3480156101ac575f80fd5b506101b5610548565b6040516101c291906108bf565b60405180910390f35b3480156101d6575f80fd5b506101f160048036038101906101ec9190610806565b61056b565b005b60015481565b60035481565b6001543414610243576040517f08c379a000000000000000000000000000000000000000000000000000000000815260040161023a90610932565b60405180910390fd5b5f8111801561025457506002548111155b610293576040517f08c379a000000000000000000000000000000000000000000000000000000000815260040161028a9061099a565b60405180910390fd5b60045f8281526020019081526020015f206002015f9054906101000a900460ff16156102f4576040517f08c379a00000000000000000000000000000000000000000000000000000000081526004016102eb90610a02565b60405180910390fd5b60405180606001604052803373ffffffffffffffffffffffffffffffffffffffff1681526020018281526020016001151581525060045f8381526020019081526020015f205f820151815f015f6101000a81548173ffffffffffffffffffffffffffffffffffffffff021916908373ffffffffffffffffffffffffffffffffffffffff160217905550602082015181600101556040820151816002015f6101000a81548160ff02191690831515021790555090505060035f8154809291906103bb90610a4d565b919050555060045f8281526020019081526020015f206002015f9054906101000a900460ff166103ee576103ed610a94565b5b50565b60025481565b5f8054906101000a900473ffffffffffffffffffffffffffffffffffffffff1673ffffffffffffffffffffffffffffffffffffffff163373ffffffffffffffffffffffffffffffffffffffff1614610484576040517f08c379a000000000000000000000000000000000000000000000000000000000815260040161047b90610b31565b60405180910390fd5b5f4790505f8054906101000a900473ffffffffffffffffffffffffffffffffffffffff1673ffffffffffffffffffffffffffffffffffffffff166108fc8290811502906040515f60405180830381858888f193505050501580156104ea573d5f803e3d5ffd5b5050565b6004602052805f5260405f205f91509050805f015f9054906101000a900473ffffffffffffffffffffffffffffffffffffffff1690806001015490806002015f9054906101000a900460ff16905083565b5f600354905090565b5f8054906101000a900473ffffffffffffffffffffffffffffffffffffffff1681565b5f8111801561057c57506002548111155b6105bb576040517f08c379a00000000000000000000000000000000000000000000000000000000081526004016105b29061099a565b60405180910390fd5b60045f8281526020019081526020015f206002015f9054906101000a900460ff1661061b576040517f08c379a000000000000000000000000000000000000000000000000000000000815260040161061290610b99565b60405180910390fd5b3373ffffffffffffffffffffffffffffffffffffffff1660045f8381526020019081526020015f205f015f9054906101000a900473ffffffffffffffffffffffffffffffffffffffff1673ffffffffffffffffffffffffffffffffffffffff16146106bb576040517f08c379a00000000000000000000000000000000000000000000000000000000081526004016106b290610c01565b60405180910390fd5b5f60045f8381526020019081526020015f206002015f6101000a81548160ff02191690831515021790555060035f8154809291906106f890610c1f565b91905055503373ffffffffffffffffffffffffffffffffffffffff166108fc60015490811502906040515f60405180830381858888f19350505050158015610742573d5f803e3d5ffd5b5060045f8281526020019081526020015f206002015f9054906101000a900460ff16156107a4576040517f08c379a000000000000000000000000000000000000000000000000000000000815260040161079b90610c90565b60405180910390fd5b50565b5f819050919050565b6107b9816107a7565b82525050565b5f6020820190506107d25f8301846107b0565b92915050565b5f80fd5b6107e5816107a7565b81146107ef575f80fd5b50565b5f81359050610800816107dc565b92915050565b5f6020828403121561081b5761081a6107d8565b5b5f610828848285016107f2565b91505092915050565b5f73ffffffffffffffffffffffffffffffffffffffff82169050919050565b5f61085a82610831565b9050919050565b61086a81610850565b82525050565b5f8115159050919050565b61088481610870565b82525050565b5f60608201905061089d5f830186610861565b6108aa60208301856107b0565b6108b7604083018461087b565b949350505050565b5f6020820190506108d25f830184610861565b92915050565b5f82825260208201905092915050565b7f496e636f7272656374207469636b6574207072696365000000000000000000005f82015250565b5f61091c6016836108d8565b9150610927826108e8565b602082019050919050565b5f6020820190508181035f83015261094981610910565b9050919050565b7f496e76616c69642073656174206e756d626572000000000000000000000000005f82015250565b5f6109846013836108d8565b915061098f82610950565b602082019050919050565b5f6020820190508181035f8301526109b181610978565b9050919050565b7f5365617420616c726561647920626f6f6b6564000000000000000000000000005f82015250565b5f6109ec6013836108d8565b91506109f7826109b8565b602082019050919050565b5f6020820190508181035f830152610a19816109e0565b9050919050565b7f4e487b71000000000000000000000000000000000000000000000000000000005f52601160045260245ffd5b5f610a57826107a7565b91507fffffffffffffffffffffffffffffffffffffffffffffffffffffffffffffffff8203610a8957610a88610a20565b5b600182019050919050565b7f4e487b71000000000000000000000000000000000000000000000000000000005f52600160045260245ffd5b7f4f6e6c7920746865206f776e65722063616e2077697468647261772066756e645f8201527f7300000000000000000000000000000000000000000000000000000000000000602082015250565b5f610b1b6021836108d8565b9150610b2682610ac1565b604082019050919050565b5f6020820190508181035f830152610b4881610b0f565b9050919050565b7f53656174206e6f7420626f6f6b656400000000000000000000000000000000005f82015250565b5f610b83600f836108d8565b9150610b8e82610b4f565b602082019050919050565b5f6020820190508181035f830152610bb081610b77565b9050919050565b7f4e6f7420746865207469636b6574206f776e65720000000000000000000000005f82015250565b5f610beb6014836108d8565b9150610bf682610bb7565b602082019050919050565b5f6020820190508181035f830152610c1881610bdf565b9050919050565b5f610c29826107a7565b91505f8203610c3b57610c3a610a20565b5b600182039050919050565b7f5469636b65742063616e63656c6c6174696f6e206661696c65640000000000005f82015250565b5f610c7a601a836108d8565b9150610c8582610c46565b602082019050919050565b5f6020820190508181035f830152610ca781610c6e565b905091905056fea2646970667358221220d764868ded6c4f09c8a48e20bab554dc815b83d4c7c16a9733a5836050684c8f64736f6c63430008190033",
					"opcodes": "PUSH1 0x80 PUSH1 0x40 MSTORE CALLVALUE DUP1 ISZERO PUSH2 0xF JUMPI PUSH0 DUP1 REVERT JUMPDEST POP PUSH1 0x40 MLOAD PUSH2 0xDF2 CODESIZE SUB DUP1 PUSH2 0xDF2 DUP4 CODECOPY DUP2 DUP2 ADD PUSH1 0x40 MSTORE DUP2 ADD SWAP1 PUSH2 0x31 SWAP2 SWAP1 PUSH2 0xC3 JUMP JUMPDEST CALLER PUSH0 DUP1 PUSH2 0x100 EXP DUP2 SLOAD DUP2 PUSH20 0xFFFFFFFFFFFFFFFFFFFFFFFFFFFFFFFFFFFFFFFF MUL NOT AND SWAP1 DUP4 PUSH20 0xFFFFFFFFFFFFFFFFFFFFFFFFFFFFFFFFFFFFFFFF AND MUL OR SWAP1 SSTORE POP DUP2 PUSH1 0x2 DUP2 SWAP1 SSTORE POP DUP1 PUSH1 0x1 DUP2 SWAP1 SSTORE POP PUSH0 PUSH1 0x3 DUP2 SWAP1 SSTORE POP POP POP PUSH2 0x101 JUMP JUMPDEST PUSH0 DUP1 REVERT JUMPDEST PUSH0 DUP2 SWAP1 POP SWAP2 SWAP1 POP JUMP JUMPDEST PUSH2 0xA2 DUP2 PUSH2 0x90 JUMP JUMPDEST DUP2 EQ PUSH2 0xAC JUMPI PUSH0 DUP1 REVERT JUMPDEST POP JUMP JUMPDEST PUSH0 DUP2 MLOAD SWAP1 POP PUSH2 0xBD DUP2 PUSH2 0x99 JUMP JUMPDEST SWAP3 SWAP2 POP POP JUMP JUMPDEST PUSH0 DUP1 PUSH1 0x40 DUP4 DUP6 SUB SLT ISZERO PUSH2 0xD9 JUMPI PUSH2 0xD8 PUSH2 0x8C JUMP JUMPDEST JUMPDEST PUSH0 PUSH2 0xE6 DUP6 DUP3 DUP7 ADD PUSH2 0xAF JUMP JUMPDEST SWAP3 POP POP PUSH1 0x20 PUSH2 0xF7 DUP6 DUP3 DUP7 ADD PUSH2 0xAF JUMP JUMPDEST SWAP2 POP POP SWAP3 POP SWAP3 SWAP1 POP JUMP JUMPDEST PUSH2 0xCE4 DUP1 PUSH2 0x10E PUSH0 CODECOPY PUSH0 RETURN INVALID PUSH1 0x80 PUSH1 0x40 MSTORE PUSH1 0x4 CALLDATASIZE LT PUSH2 0x85 JUMPI PUSH0 CALLDATALOAD PUSH1 0xE0 SHR DUP1 PUSH4 0x24600FC3 GT PUSH2 0x58 JUMPI DUP1 PUSH4 0x24600FC3 EQ PUSH2 0x123 JUMPI DUP1 PUSH4 0x50B44712 EQ PUSH2 0x139 JUMPI DUP1 PUSH4 0x5EBB833B EQ PUSH2 0x177 JUMPI DUP1 PUSH4 0x8DA5CB5B EQ PUSH2 0x1A1 JUMPI DUP1 PUSH4 0xEE355B1F EQ PUSH2 0x1CB JUMPI PUSH2 0x85 JUMP JUMPDEST DUP1 PUSH4 0x1209B1F6 EQ PUSH2 0x89 JUMPI DUP1 PUSH4 0x1BD50859 EQ PUSH2 0xB3 JUMPI DUP1 PUSH4 0x1C91A65E EQ PUSH2 0xDD JUMPI DUP1 PUSH4 0x1FFC615E EQ PUSH2 0xF9 JUMPI JUMPDEST PUSH0 DUP1 REVERT JUMPDEST CALLVALUE DUP1 ISZERO PUSH2 0x94 JUMPI PUSH0 DUP1 REVERT JUMPDEST POP PUSH2 0x9D PUSH2 0x1F3 JUMP JUMPDEST PUSH1 0x40 MLOAD PUSH2 0xAA SWAP2 SWAP1 PUSH2 0x7BF JUMP JUMPDEST PUSH1 0x40 MLOAD DUP1 SWAP2 SUB SWAP1 RETURN JUMPDEST CALLVALUE DUP1 ISZERO PUSH2 0xBE JUMPI PUSH0 DUP1 REVERT JUMPDEST POP PUSH2 0xC7 PUSH2 0x1F9 JUMP JUMPDEST PUSH1 0x40 MLOAD PUSH2 0xD4 SWAP2 SWAP1 PUSH2 0x7BF JUMP JUMPDEST PUSH1 0x40 MLOAD DUP1 SWAP2 SUB SWAP1 RETURN JUMPDEST PUSH2 0xF7 PUSH1 0x4 DUP1 CALLDATASIZE SUB DUP2 ADD SWAP1 PUSH2 0xF2 SWAP2 SWAP1 PUSH2 0x806 JUMP JUMPDEST PUSH2 0x1FF JUMP JUMPDEST STOP JUMPDEST CALLVALUE DUP1 ISZERO PUSH2 0x104 JUMPI PUSH0 DUP1 REVERT JUMPDEST POP PUSH2 0x10D PUSH2 0x3F1 JUMP JUMPDEST PUSH1 0x40 MLOAD PUSH2 0x11A SWAP2 SWAP1 PUSH2 0x7BF JUMP JUMPDEST PUSH1 0x40 MLOAD DUP1 SWAP2 SUB SWAP1 RETURN JUMPDEST CALLVALUE DUP1 ISZERO PUSH2 0x12E JUMPI PUSH0 DUP1 REVERT JUMPDEST POP PUSH2 0x137 PUSH2 0x3F7 JUMP JUMPDEST STOP JUMPDEST CALLVALUE DUP1 ISZERO PUSH2 0x144 JUMPI PUSH0 DUP1 REVERT JUMPDEST POP PUSH2 0x15F PUSH1 0x4 DUP1 CALLDATASIZE SUB DUP2 ADD SWAP1 PUSH2 0x15A SWAP2 SWAP1 PUSH2 0x806 JUMP JUMPDEST PUSH2 0x4EE JUMP JUMPDEST PUSH1 0x40 MLOAD PUSH2 0x16E SWAP4 SWAP3 SWAP2 SWAP1 PUSH2 0x88A JUMP JUMPDEST PUSH1 0x40 MLOAD DUP1 SWAP2 SUB SWAP1 RETURN JUMPDEST CALLVALUE DUP1 ISZERO PUSH2 0x182 JUMPI PUSH0 DUP1 REVERT JUMPDEST POP PUSH2 0x18B PUSH2 0x53F JUMP JUMPDEST PUSH1 0x40 MLOAD PUSH2 0x198 SWAP2 SWAP1 PUSH2 0x7BF JUMP JUMPDEST PUSH1 0x40 MLOAD DUP1 SWAP2 SUB SWAP1 RETURN JUMPDEST CALLVALUE DUP1 ISZERO PUSH2 0x1AC JUMPI PUSH0 DUP1 REVERT JUMPDEST POP PUSH2 0x1B5 PUSH2 0x548 JUMP JUMPDEST PUSH1 0x40 MLOAD PUSH2 0x1C2 SWAP2 SWAP1 PUSH2 0x8BF JUMP JUMPDEST PUSH1 0x40 MLOAD DUP1 SWAP2 SUB SWAP1 RETURN JUMPDEST CALLVALUE DUP1 ISZERO PUSH2 0x1D6 JUMPI PUSH0 DUP1 REVERT JUMPDEST POP PUSH2 0x1F1 PUSH1 0x4 DUP1 CALLDATASIZE SUB DUP2 ADD SWAP1 PUSH2 0x1EC SWAP2 SWAP1 PUSH2 0x806 JUMP JUMPDEST PUSH2 0x56B JUMP JUMPDEST STOP JUMPDEST PUSH1 0x1 SLOAD DUP2 JUMP JUMPDEST PUSH1 0x3 SLOAD DUP2 JUMP JUMPDEST PUSH1 0x1 SLOAD CALLVALUE EQ PUSH2 0x243 JUMPI PUSH1 0x40 MLOAD PUSH32 0x8C379A000000000000000000000000000000000000000000000000000000000 DUP2 MSTORE PUSH1 0x4 ADD PUSH2 0x23A SWAP1 PUSH2 0x932 JUMP JUMPDEST PUSH1 0x40 MLOAD DUP1 SWAP2 SUB SWAP1 REVERT JUMPDEST PUSH0 DUP2 GT DUP1 ISZERO PUSH2 0x254 JUMPI POP PUSH1 0x2 SLOAD DUP2 GT ISZERO JUMPDEST PUSH2 0x293 JUMPI PUSH1 0x40 MLOAD PUSH32 0x8C379A000000000000000000000000000000000000000000000000000000000 DUP2 MSTORE PUSH1 0x4 ADD PUSH2 0x28A SWAP1 PUSH2 0x99A JUMP JUMPDEST PUSH1 0x40 MLOAD DUP1 SWAP2 SUB SWAP1 REVERT JUMPDEST PUSH1 0x4 PUSH0 DUP3 DUP2 MSTORE PUSH1 0x20 ADD SWAP1 DUP2 MSTORE PUSH1 0x20 ADD PUSH0 KECCAK256 PUSH1 0x2 ADD PUSH0 SWAP1 SLOAD SWAP1 PUSH2 0x100 EXP SWAP1 DIV PUSH1 0xFF AND ISZERO PUSH2 0x2F4 JUMPI PUSH1 0x40 MLOAD PUSH32 0x8C379A000000000000000000000000000000000000000000000000000000000 DUP2 MSTORE PUSH1 0x4 ADD PUSH2 0x2EB SWAP1 PUSH2 0xA02 JUMP JUMPDEST PUSH1 0x40 MLOAD DUP1 SWAP2 SUB SWAP1 REVERT JUMPDEST PUSH1 0x40 MLOAD DUP1 PUSH1 0x60 ADD PUSH1 0x40 MSTORE DUP1 CALLER PUSH20 0xFFFFFFFFFFFFFFFFFFFFFFFFFFFFFFFFFFFFFFFF AND DUP2 MSTORE PUSH1 0x20 ADD DUP3 DUP2 MSTORE PUSH1 0x20 ADD PUSH1 0x1 ISZERO ISZERO DUP2 MSTORE POP PUSH1 0x4 PUSH0 DUP4 DUP2 MSTORE PUSH1 0x20 ADD SWAP1 DUP2 MSTORE PUSH1 0x20 ADD PUSH0 KECCAK256 PUSH0 DUP3 ADD MLOAD DUP2 PUSH0 ADD PUSH0 PUSH2 0x100 EXP DUP2 SLOAD DUP2 PUSH20 0xFFFFFFFFFFFFFFFFFFFFFFFFFFFFFFFFFFFFFFFF MUL NOT AND SWAP1 DUP4 PUSH20 0xFFFFFFFFFFFFFFFFFFFFFFFFFFFFFFFFFFFFFFFF AND MUL OR SWAP1 SSTORE POP PUSH1 0x20 DUP3 ADD MLOAD DUP2 PUSH1 0x1 ADD SSTORE PUSH1 0x40 DUP3 ADD MLOAD DUP2 PUSH1 0x2 ADD PUSH0 PUSH2 0x100 EXP DUP2 SLOAD DUP2 PUSH1 0xFF MUL NOT AND SWAP1 DUP4 ISZERO ISZERO MUL OR SWAP1 SSTORE POP SWAP1 POP POP PUSH1 0x3 PUSH0 DUP2 SLOAD DUP1 SWAP3 SWAP2 SWAP1 PUSH2 0x3BB SWAP1 PUSH2 0xA4D JUMP JUMPDEST SWAP2 SWAP1 POP SSTORE POP PUSH1 0x4 PUSH0 DUP3 DUP2 MSTORE PUSH1 0x20 ADD SWAP1 DUP2 MSTORE PUSH1 0x20 ADD PUSH0 KECCAK256 PUSH1 0x2 ADD PUSH0 SWAP1 SLOAD SWAP1 PUSH2 0x100 EXP SWAP1 DIV PUSH1 0xFF AND PUSH2 0x3EE JUMPI PUSH2 0x3ED PUSH2 0xA94 JUMP JUMPDEST JUMPDEST POP JUMP JUMPDEST PUSH1 0x2 SLOAD DUP2 JUMP JUMPDEST PUSH0 DUP1 SLOAD SWAP1 PUSH2 0x100 EXP SWAP1 DIV PUSH20 0xFFFFFFFFFFFFFFFFFFFFFFFFFFFFFFFFFFFFFFFF AND PUSH20 0xFFFFFFFFFFFFFFFFFFFFFFFFFFFFFFFFFFFFFFFF AND CALLER PUSH20 0xFFFFFFFFFFFFFFFFFFFFFFFFFFFFFFFFFFFFFFFF AND EQ PUSH2 0x484 JUMPI PUSH1 0x40 MLOAD PUSH32 0x8C379A000000000000000000000000000000000000000000000000000000000 DUP2 MSTORE PUSH1 0x4 ADD PUSH2 0x47B SWAP1 PUSH2 0xB31 JUMP JUMPDEST PUSH1 0x40 MLOAD DUP1 SWAP2 SUB SWAP1 REVERT JUMPDEST PUSH0 SELFBALANCE SWAP1 POP PUSH0 DUP1 SLOAD SWAP1 PUSH2 0x100 EXP SWAP1 DIV PUSH20 0xFFFFFFFFFFFFFFFFFFFFFFFFFFFFFFFFFFFFFFFF AND PUSH20 0xFFFFFFFFFFFFFFFFFFFFFFFFFFFFFFFFFFFFFFFF AND PUSH2 0x8FC DUP3 SWAP1 DUP2 ISZERO MUL SWAP1 PUSH1 0x40 MLOAD PUSH0 PUSH1 0x40 MLOAD DUP1 DUP4 SUB DUP2 DUP6 DUP9 DUP9 CALL SWAP4 POP POP POP POP ISZERO DUP1 ISZERO PUSH2 0x4EA JUMPI RETURNDATASIZE PUSH0 DUP1 RETURNDATACOPY RETURNDATASIZE PUSH0 REVERT JUMPDEST POP POP JUMP JUMPDEST PUSH1 0x4 PUSH1 0x20 MSTORE DUP1 PUSH0 MSTORE PUSH1 0x40 PUSH0 KECCAK256 PUSH0 SWAP2 POP SWAP1 POP DUP1 PUSH0 ADD PUSH0 SWAP1 SLOAD SWAP1 PUSH2 0x100 EXP SWAP1 DIV PUSH20 0xFFFFFFFFFFFFFFFFFFFFFFFFFFFFFFFFFFFFFFFF AND SWAP1 DUP1 PUSH1 0x1 ADD SLOAD SWAP1 DUP1 PUSH1 0x2 ADD PUSH0 SWAP1 SLOAD SWAP1 PUSH2 0x100 EXP SWAP1 DIV PUSH1 0xFF AND SWAP1 POP DUP4 JUMP JUMPDEST PUSH0 PUSH1 0x3 SLOAD SWAP1 POP SWAP1 JUMP JUMPDEST PUSH0 DUP1 SLOAD SWAP1 PUSH2 0x100 EXP SWAP1 DIV PUSH20 0xFFFFFFFFFFFFFFFFFFFFFFFFFFFFFFFFFFFFFFFF AND DUP2 JUMP JUMPDEST PUSH0 DUP2 GT DUP1 ISZERO PUSH2 0x57C JUMPI POP PUSH1 0x2 SLOAD DUP2 GT ISZERO JUMPDEST PUSH2 0x5BB JUMPI PUSH1 0x40 MLOAD PUSH32 0x8C379A000000000000000000000000000000000000000000000000000000000 DUP2 MSTORE PUSH1 0x4 ADD PUSH2 0x5B2 SWAP1 PUSH2 0x99A JUMP JUMPDEST PUSH1 0x40 MLOAD DUP1 SWAP2 SUB SWAP1 REVERT JUMPDEST PUSH1 0x4 PUSH0 DUP3 DUP2 MSTORE PUSH1 0x20 ADD SWAP1 DUP2 MSTORE PUSH1 0x20 ADD PUSH0 KECCAK256 PUSH1 0x2 ADD PUSH0 SWAP1 SLOAD SWAP1 PUSH2 0x100 EXP SWAP1 DIV PUSH1 0xFF AND PUSH2 0x61B JUMPI PUSH1 0x40 MLOAD PUSH32 0x8C379A000000000000000000000000000000000000000000000000000000000 DUP2 MSTORE PUSH1 0x4 ADD PUSH2 0x612 SWAP1 PUSH2 0xB99 JUMP JUMPDEST PUSH1 0x40 MLOAD DUP1 SWAP2 SUB SWAP1 REVERT JUMPDEST CALLER PUSH20 0xFFFFFFFFFFFFFFFFFFFFFFFFFFFFFFFFFFFFFFFF AND PUSH1 0x4 PUSH0 DUP4 DUP2 MSTORE PUSH1 0x20 ADD SWAP1 DUP2 MSTORE PUSH1 0x20 ADD PUSH0 KECCAK256 PUSH0 ADD PUSH0 SWAP1 SLOAD SWAP1 PUSH2 0x100 EXP SWAP1 DIV PUSH20 0xFFFFFFFFFFFFFFFFFFFFFFFFFFFFFFFFFFFFFFFF AND PUSH20 0xFFFFFFFFFFFFFFFFFFFFFFFFFFFFFFFFFFFFFFFF AND EQ PUSH2 0x6BB JUMPI PUSH1 0x40 MLOAD PUSH32 0x8C379A000000000000000000000000000000000000000000000000000000000 DUP2 MSTORE PUSH1 0x4 ADD PUSH2 0x6B2 SWAP1 PUSH2 0xC01 JUMP JUMPDEST PUSH1 0x40 MLOAD DUP1 SWAP2 SUB SWAP1 REVERT JUMPDEST PUSH0 PUSH1 0x4 PUSH0 DUP4 DUP2 MSTORE PUSH1 0x20 ADD SWAP1 DUP2 MSTORE PUSH1 0x20 ADD PUSH0 KECCAK256 PUSH1 0x2 ADD PUSH0 PUSH2 0x100 EXP DUP2 SLOAD DUP2 PUSH1 0xFF MUL NOT AND SWAP1 DUP4 ISZERO ISZERO MUL OR SWAP1 SSTORE POP PUSH1 0x3 PUSH0 DUP2 SLOAD DUP1 SWAP3 SWAP2 SWAP1 PUSH2 0x6F8 SWAP1 PUSH2 0xC1F JUMP JUMPDEST SWAP2 SWAP1 POP SSTORE POP CALLER PUSH20 0xFFFFFFFFFFFFFFFFFFFFFFFFFFFFFFFFFFFFFFFF AND PUSH2 0x8FC PUSH1 0x1 SLOAD SWAP1 DUP2 ISZERO MUL SWAP1 PUSH1 0x40 MLOAD PUSH0 PUSH1 0x40 MLOAD DUP1 DUP4 SUB DUP2 DUP6 DUP9 DUP9 CALL SWAP4 POP POP POP POP ISZERO DUP1 ISZERO PUSH2 0x742 JUMPI RETURNDATASIZE PUSH0 DUP1 RETURNDATACOPY RETURNDATASIZE PUSH0 REVERT JUMPDEST POP PUSH1 0x4 PUSH0 DUP3 DUP2 MSTORE PUSH1 0x20 ADD SWAP1 DUP2 MSTORE PUSH1 0x20 ADD PUSH0 KECCAK256 PUSH1 0x2 ADD PUSH0 SWAP1 SLOAD SWAP1 PUSH2 0x100 EXP SWAP1 DIV PUSH1 0xFF AND ISZERO PUSH2 0x7A4 JUMPI PUSH1 0x40 MLOAD PUSH32 0x8C379A000000000000000000000000000000000000000000000000000000000 DUP2 MSTORE PUSH1 0x4 ADD PUSH2 0x79B SWAP1 PUSH2 0xC90 JUMP JUMPDEST PUSH1 0x40 MLOAD DUP1 SWAP2 SUB SWAP1 REVERT JUMPDEST POP JUMP JUMPDEST PUSH0 DUP2 SWAP1 POP SWAP2 SWAP1 POP JUMP JUMPDEST PUSH2 0x7B9 DUP2 PUSH2 0x7A7 JUMP JUMPDEST DUP3 MSTORE POP POP JUMP JUMPDEST PUSH0 PUSH1 0x20 DUP3 ADD SWAP1 POP PUSH2 0x7D2 PUSH0 DUP4 ADD DUP5 PUSH2 0x7B0 JUMP JUMPDEST SWAP3 SWAP2 POP POP JUMP JUMPDEST PUSH0 DUP1 REVERT JUMPDEST PUSH2 0x7E5 DUP2 PUSH2 0x7A7 JUMP JUMPDEST DUP2 EQ PUSH2 0x7EF JUMPI PUSH0 DUP1 REVERT JUMPDEST POP JUMP JUMPDEST PUSH0 DUP2 CALLDATALOAD SWAP1 POP PUSH2 0x800 DUP2 PUSH2 0x7DC JUMP JUMPDEST SWAP3 SWAP2 POP POP JUMP JUMPDEST PUSH0 PUSH1 0x20 DUP3 DUP5 SUB SLT ISZERO PUSH2 0x81B JUMPI PUSH2 0x81A PUSH2 0x7D8 JUMP JUMPDEST JUMPDEST PUSH0 PUSH2 0x828 DUP5 DUP3 DUP6 ADD PUSH2 0x7F2 JUMP JUMPDEST SWAP2 POP POP SWAP3 SWAP2 POP POP JUMP JUMPDEST PUSH0 PUSH20 0xFFFFFFFFFFFFFFFFFFFFFFFFFFFFFFFFFFFFFFFF DUP3 AND SWAP1 POP SWAP2 SWAP1 POP JUMP JUMPDEST PUSH0 PUSH2 0x85A DUP3 PUSH2 0x831 JUMP JUMPDEST SWAP1 POP SWAP2 SWAP1 POP JUMP JUMPDEST PUSH2 0x86A DUP2 PUSH2 0x850 JUMP JUMPDEST DUP3 MSTORE POP POP JUMP JUMPDEST PUSH0 DUP2 ISZERO ISZERO SWAP1 POP SWAP2 SWAP1 POP JUMP JUMPDEST PUSH2 0x884 DUP2 PUSH2 0x870 JUMP JUMPDEST DUP3 MSTORE POP POP JUMP JUMPDEST PUSH0 PUSH1 0x60 DUP3 ADD SWAP1 POP PUSH2 0x89D PUSH0 DUP4 ADD DUP7 PUSH2 0x861 JUMP JUMPDEST PUSH2 0x8AA PUSH1 0x20 DUP4 ADD DUP6 PUSH2 0x7B0 JUMP JUMPDEST PUSH2 0x8B7 PUSH1 0x40 DUP4 ADD DUP5 PUSH2 0x87B JUMP JUMPDEST SWAP5 SWAP4 POP POP POP POP JUMP JUMPDEST PUSH0 PUSH1 0x20 DUP3 ADD SWAP1 POP PUSH2 0x8D2 PUSH0 DUP4 ADD DUP5 PUSH2 0x861 JUMP JUMPDEST SWAP3 SWAP2 POP POP JUMP JUMPDEST PUSH0 DUP3 DUP3 MSTORE PUSH1 0x20 DUP3 ADD SWAP1 POP SWAP3 SWAP2 POP POP JUMP JUMPDEST PUSH32 0x496E636F7272656374207469636B657420707269636500000000000000000000 PUSH0 DUP3 ADD MSTORE POP JUMP JUMPDEST PUSH0 PUSH2 0x91C PUSH1 0x16 DUP4 PUSH2 0x8D8 JUMP JUMPDEST SWAP2 POP PUSH2 0x927 DUP3 PUSH2 0x8E8 JUMP JUMPDEST PUSH1 0x20 DUP3 ADD SWAP1 POP SWAP2 SWAP1 POP JUMP JUMPDEST PUSH0 PUSH1 0x20 DUP3 ADD SWAP1 POP DUP2 DUP2 SUB PUSH0 DUP4 ADD MSTORE PUSH2 0x949 DUP2 PUSH2 0x910 JUMP JUMPDEST SWAP1 POP SWAP2 SWAP1 POP JUMP JUMPDEST PUSH32 0x496E76616C69642073656174206E756D62657200000000000000000000000000 PUSH0 DUP3 ADD MSTORE POP JUMP JUMPDEST PUSH0 PUSH2 0x984 PUSH1 0x13 DUP4 PUSH2 0x8D8 JUMP JUMPDEST SWAP2 POP PUSH2 0x98F DUP3 PUSH2 0x950 JUMP JUMPDEST PUSH1 0x20 DUP3 ADD SWAP1 POP SWAP2 SWAP1 POP JUMP JUMPDEST PUSH0 PUSH1 0x20 DUP3 ADD SWAP1 POP DUP2 DUP2 SUB PUSH0 DUP4 ADD MSTORE PUSH2 0x9B1 DUP2 PUSH2 0x978 JUMP JUMPDEST SWAP1 POP SWAP2 SWAP1 POP JUMP JUMPDEST PUSH32 0x5365617420616C726561647920626F6F6B656400000000000000000000000000 PUSH0 DUP3 ADD MSTORE POP JUMP JUMPDEST PUSH0 PUSH2 0x9EC PUSH1 0x13 DUP4 PUSH2 0x8D8 JUMP JUMPDEST SWAP2 POP PUSH2 0x9F7 DUP3 PUSH2 0x9B8 JUMP JUMPDEST PUSH1 0x20 DUP3 ADD SWAP1 POP SWAP2 SWAP1 POP JUMP JUMPDEST PUSH0 PUSH1 0x20 DUP3 ADD SWAP1 POP DUP2 DUP2 SUB PUSH0 DUP4 ADD MSTORE PUSH2 0xA19 DUP2 PUSH2 0x9E0 JUMP JUMPDEST SWAP1 POP SWAP2 SWAP1 POP JUMP JUMPDEST PUSH32 0x4E487B7100000000000000000000000000000000000000000000000000000000 PUSH0 MSTORE PUSH1 0x11 PUSH1 0x4 MSTORE PUSH1 0x24 PUSH0 REVERT JUMPDEST PUSH0 PUSH2 0xA57 DUP3 PUSH2 0x7A7 JUMP JUMPDEST SWAP2 POP PUSH32 0xFFFFFFFFFFFFFFFFFFFFFFFFFFFFFFFFFFFFFFFFFFFFFFFFFFFFFFFFFFFFFFFF DUP3 SUB PUSH2 0xA89 JUMPI PUSH2 0xA88 PUSH2 0xA20 JUMP JUMPDEST JUMPDEST PUSH1 0x1 DUP3 ADD SWAP1 POP SWAP2 SWAP1 POP JUMP JUMPDEST PUSH32 0x4E487B7100000000000000000000000000000000000000000000000000000000 PUSH0 MSTORE PUSH1 0x1 PUSH1 0x4 MSTORE PUSH1 0x24 PUSH0 REVERT JUMPDEST PUSH32 0x4F6E6C7920746865206F776E65722063616E2077697468647261772066756E64 PUSH0 DUP3 ADD MSTORE PUSH32 0x7300000000000000000000000000000000000000000000000000000000000000 PUSH1 0x20 DUP3 ADD MSTORE POP JUMP JUMPDEST PUSH0 PUSH2 0xB1B PUSH1 0x21 DUP4 PUSH2 0x8D8 JUMP JUMPDEST SWAP2 POP PUSH2 0xB26 DUP3 PUSH2 0xAC1 JUMP JUMPDEST PUSH1 0x40 DUP3 ADD SWAP1 POP SWAP2 SWAP1 POP JUMP JUMPDEST PUSH0 PUSH1 0x20 DUP3 ADD SWAP1 POP DUP2 DUP2 SUB PUSH0 DUP4 ADD MSTORE PUSH2 0xB48 DUP2 PUSH2 0xB0F JUMP JUMPDEST SWAP1 POP SWAP2 SWAP1 POP JUMP JUMPDEST PUSH32 0x53656174206E6F7420626F6F6B65640000000000000000000000000000000000 PUSH0 DUP3 ADD MSTORE POP JUMP JUMPDEST PUSH0 PUSH2 0xB83 PUSH1 0xF DUP4 PUSH2 0x8D8 JUMP JUMPDEST SWAP2 POP PUSH2 0xB8E DUP3 PUSH2 0xB4F JUMP JUMPDEST PUSH1 0x20 DUP3 ADD SWAP1 POP SWAP2 SWAP1 POP JUMP JUMPDEST PUSH0 PUSH1 0x20 DUP3 ADD SWAP1 POP DUP2 DUP2 SUB PUSH0 DUP4 ADD MSTORE PUSH2 0xBB0 DUP2 PUSH2 0xB77 JUMP JUMPDEST SWAP1 POP SWAP2 SWAP1 POP JUMP JUMPDEST PUSH32 0x4E6F7420746865207469636B6574206F776E6572000000000000000000000000 PUSH0 DUP3 ADD MSTORE POP JUMP JUMPDEST PUSH0 PUSH2 0xBEB PUSH1 0x14 DUP4 PUSH2 0x8D8 JUMP JUMPDEST SWAP2 POP PUSH2 0xBF6 DUP3 PUSH2 0xBB7 JUMP JUMPDEST PUSH1 0x20 DUP3 ADD SWAP1 POP SWAP2 SWAP1 POP JUMP JUMPDEST PUSH0 PUSH1 0x20 DUP3 ADD SWAP1 POP DUP2 DUP2 SUB PUSH0 DUP4 ADD MSTORE PUSH2 0xC18 DUP2 PUSH2 0xBDF JUMP JUMPDEST SWAP1 POP SWAP2 SWAP1 POP JUMP JUMPDEST PUSH0 PUSH2 0xC29 DUP3 PUSH2 0x7A7 JUMP JUMPDEST SWAP2 POP PUSH0 DUP3 SUB PUSH2 0xC3B JUMPI PUSH2 0xC3A PUSH2 0xA20 JUMP JUMPDEST JUMPDEST PUSH1 0x1 DUP3 SUB SWAP1 POP SWAP2 SWAP1 POP JUMP JUMPDEST PUSH32 0x5469636B65742063616E63656C6C6174696F6E206661696C6564000000000000 PUSH0 DUP3 ADD MSTORE POP JUMP JUMPDEST PUSH0 PUSH2 0xC7A PUSH1 0x1A DUP4 PUSH2 0x8D8 JUMP JUMPDEST SWAP2 POP PUSH2 0xC85 DUP3 PUSH2 0xC46 JUMP JUMPDEST PUSH1 0x20 DUP3 ADD SWAP1 POP SWAP2 SWAP1 POP JUMP JUMPDEST PUSH0 PUSH1 0x20 DUP3 ADD SWAP1 POP DUP2 DUP2 SUB PUSH0 DUP4 ADD MSTORE PUSH2 0xCA7 DUP2 PUSH2 0xC6E JUMP JUMPDEST SWAP1 POP SWAP2 SWAP1 POP JUMP INVALID LOG2 PUSH5 0x6970667358 0x22 SLT KECCAK256 0xD7 PUSH5 0x868DED6C4F MULMOD 0xC8 LOG4 DUP15 KECCAK256 0xBA 0xB5 SLOAD 0xDC DUP2 JUMPDEST DUP4 0xD4 0xC7 0xC1 PUSH11 0x9733A5836050684C8F6473 PUSH16 0x6C634300081900330000000000000000 "
				},
				"gasEstimates": {
					"creation": {
						"codeDepositCost": "660000",
						"executionCost": "infinite",
						"totalCost": "infinite"
					},
					"external": {
						"bookTicket(uint256)": "infinite",
						"bookedSeats()": "2448",
						"cancelTicket(uint256)": "infinite",
						"getBookedSeats()": "2476",
						"owner()": "2571",
						"ticketPrice()": "2426",
						"tickets(uint256)": "infinite",
						"totalSeats()": "2492",
						"withdrawFunds()": "infinite"
					}
				},
				"methodIdentifiers": {
					"bookTicket(uint256)": "1c91a65e",
					"bookedSeats()": "1bd50859",
					"cancelTicket(uint256)": "ee355b1f",
					"getBookedSeats()": "5ebb833b",
					"owner()": "8da5cb5b",
					"ticketPrice()": "1209b1f6",
					"tickets(uint256)": "50b44712",
					"totalSeats()": "1ffc615e",
					"withdrawFunds()": "24600fc3"
				}
			},
			"storageLayout": {
				"storage": [
					{
						"astId": 10,
						"contract": "assessment.sol:RailwayBooking",
						"label": "owner",
						"offset": 0,
						"slot": "0",
						"type": "t_address"
					},
					{
						"astId": 12,
						"contract": "assessment.sol:RailwayBooking",
						"label": "ticketPrice",
						"offset": 0,
						"slot": "1",
						"type": "t_uint256"
					},
					{
						"astId": 14,
						"contract": "assessment.sol:RailwayBooking",
						"label": "totalSeats",
						"offset": 0,
						"slot": "2",
						"type": "t_uint256"
					},
					{
						"astId": 16,
						"contract": "assessment.sol:RailwayBooking",
						"label": "bookedSeats",
						"offset": 0,
						"slot": "3",
						"type": "t_uint256"
					},
					{
						"astId": 21,
						"contract": "assessment.sol:RailwayBooking",
						"label": "tickets",
						"offset": 0,
						"slot": "4",
						"type": "t_mapping(t_uint256,t_struct(Ticket)8_storage)"
					}
				],
				"types": {
					"t_address": {
						"encoding": "inplace",
						"label": "address",
						"numberOfBytes": "20"
					},
					"t_bool": {
						"encoding": "inplace",
						"label": "bool",
						"numberOfBytes": "1"
					},
					"t_mapping(t_uint256,t_struct(Ticket)8_storage)": {
						"encoding": "mapping",
						"key": "t_uint256",
						"label": "mapping(uint256 => struct RailwayBooking.Ticket)",
						"numberOfBytes": "32",
						"value": "t_struct(Ticket)8_storage"
					},
					"t_struct(Ticket)8_storage": {
						"encoding": "inplace",
						"label": "struct RailwayBooking.Ticket",
						"members": [
							{
								"astId": 3,
								"contract": "assessment.sol:RailwayBooking",
								"label": "passenger",
								"offset": 0,
								"slot": "0",
								"type": "t_address"
							},
							{
								"astId": 5,
								"contract": "assessment.sol:RailwayBooking",
								"label": "seatNumber",
								"offset": 0,
								"slot": "1",
								"type": "t_uint256"
							},
							{
								"astId": 7,
								"contract": "assessment.sol:RailwayBooking",
								"label": "isBooked",
								"offset": 0,
								"slot": "2",
								"type": "t_bool"
							}
						],
						"numberOfBytes": "96"
					},
					"t_uint256": {
						"encoding": "inplace",
						"label": "uint256",
						"numberOfBytes": "32"
					}
				}
			},
			"userdoc": {
				"kind": "user",
				"methods": {},
				"version": 1
			}
		}
	}
}